:020000040800F2
:100000006037002085540008595200085B520008F0
:100010005D5200085F5200086152000800000000B5
:100020000000000000000000000000006352000813
:10003000655200080000000091230008C721000855
:10004000C5540008C9540008CD5400086752000880
:10005000D1540008D5540008D9540008DD540008D4
:10006000E1540008E5540008E9540008ED54000884
:100070006D5200086F520008E5530008EB5300086A
:100080007152000877520008F1540008F554000836
:10009000F9540008FD5400080155000805550008F2
:1000A000095500080D5500081155000815550008A0
:1000B000195500081D5500087D52000821550008FB
:1000C00025550008295500082D5500083155000810
:1000D00035550008F1530008835200089D5200086E
:1000E000395500083D550008415500082DE9F843F1
:1000F000040016D02078DFF8A464C10713D5706817
:1001000000F00C00042807D0706800F00C000828EC
:1001100041D17068C1033ED53068810303D5606862
:10012000002800F064812078DFF88074810719D5F9
:10013000706810F00C0F07D0706800F00C000828F1
:1001400061D17068C1035ED43068810703D520692E
:10015000012840F04C813168606921F0F80141EAE2
:10016000C00131602178080740F18180A069DFF883
:100170004014002800F0A68001220A6000F04CFA2A
:100180000546706A810763D400F046FA401B0228D6
:10019000F7D903202EE16068B0F5803F04D13068C4
:1001A00040F48030306014E008B930680AE0B0F5FF
:1001B000A02F306806D140F480203060316841F4CF
:1001C000803105E020F480303060316821F48021F6
:1001D0003160606858B100F01FFA0546306881034D
:1001E000A1D400F019FA401B6528F7D3D1E700F03D
:1001F00013FA05463068810395D500F00DFA401BCF
:100200006528F7D3C5E72069A8B10121396000F05E
:1002100003FA05463068810705D400F0FDF9401B5C
:100220000228F7D9B5E73068616920F0F80040EAA4
:10023000C100306096E7386000F0EEF9054631689D
:1002400088078FD500F0E8F9401B0228F7D9A0E70E
:10025000DFF84C030168C9084FF47A72B1FBF2F27F
:10026000009200BF0098411E00280091F9D120782B
:1002700041076ED5F0690025C10009D4F06940F04E
:100280008050F0610125F06900F0805000900098E6
:10029000DFF82083D8F80000C10520D4D8F800008A
:1002A00040F48070C8F8000000F0B6F98146D8F834
:1002B0000000C10513D400F0AFF9A0EB09006528D8
:1002C000F5D366E7086000F0A7F90546706A810774
:1002D000CDD500F0A1F9401B0228F7D959E7E06815
:1002E000012808D008B9306A09E00528306A06D12B
:1002F00040F004003062306A40F0010005E0400840
:1003000040003062306A20F00400306241F28938E7
:10031000E06860B100F080F98146306A810713D44B
:1003200000F07AF9A0EB09004045F6D331E700F080
:1003300073F98146306A810706D500F06DF9A0EBAC
:1003400009004045F6D324E71DB1F06920F0805044
:10035000F061E06900284CD0716801F00C010829B7
:1003600038D002282AD100F047F8054630688101CC
:1003700005D500F051F9401B0228F7D909E7206A9A
:10038000B0F5803F05D17168A06821F400310143C8
:1003900071607268206A616A22F4741202430A432F
:1003A0007260012000F029F804463068810120D4F1
:1003B00000F032F9001B0228F7D9EAE600F01CF839
:1003C00004463068810114D500F026F9001B02288C
:1003D000F7D9DEE601280AD07068226A00F480317D
:1003E000914202BF00F47010616A884201D001207E
:1003F00000E00020BDE8F2830020386600F00CB970
:100400002DE9F041040088464ED06B4E00F077F89D
:1004100002D200F06FF847D12068604D810712D5F5
:10042000400703D5696841F4E061696020780107FD
:1004300003D5686840F4605068606968A06821F07E
:10044000F001014369602178C80725D5606801285B
:1004500002D129688A0303E00228296802D18A01AF
:1004600002D421E08A071FD56968890840EA810023
:10047000686000F0D1F807466868616800F00C0019
:10048000B0EB810F08D000F0C7F8C01B41F28931F2
:100490008842F1D303202BE0306800F0070080454C
:1004A00004D200F027F801D0012021E02078410794
:1004B00005D56A68E06822F4E06202436A60217848
:1004C000080706D56968206921F4605141EAC00136
:1004D000696000F019F86A683849314BC2F30312B9
:1004E000895CC84018603048006800F09BF8002024
:1004F000BDE8F0813168C90848EAC101316030685F
:1005000000F00700404570472D4926480A6802F070
:100510000C03082B00D0704710B500BF2BA4C2F30A
:100520008343D203E35C08D5096858432BA3C1F386
:1005300040415A5CB0FBF2F010BD184621494843D7
:1005400010BD17481E4A006813681F49C3F30222F2
:1005500006E013481A4A006813681B49C3F3C22215
:10056000895CC840704710B50F220260144A1368B6
:1005700003F003034360146804F0F004846013681C
:1005800003F4E063C3601268D20802F4E06202611F
:100590000948026802F007020A6010BD001002401C
:1005A0001C00002000127A001800002000004242C7
:1005B0008004424200700040002002406454000861
:1005C0000410024000093D00B45400080203040571
:1005D000060708090A0B0C0D0E0F1010010230B4AB
:1005E000002513E050F8042BD30744BFA9F1010301
:1005F0009A18091F042942F8045BFAD213468C07A3
:1006000044BF15809B1CC90748BF1D7050F8041BD0
:100610000029E7D130BC704701484068704700BFEF
:100620001000002018B5014687B000221E2000F0FF
:100630004FF81E2000F069F81448154C016841F08D
:100640000401016001A9006800F004000090009816
:1006500002A8FFF788FFFFF774FF0E49216040F200
:10066000E73240000C49E260B0FBF1F0401E6060F0
:1006700000222261A260204600F05CF818B92046F2
:1006800000F065F800E0012008B010BD1C10024029
:100690007C3100200008004040420F0009010200A8
:1006A00002D41F48815470471E4B02F00F021A44B7
:1006B00002F8041C70471C4B19684FF6FF02000239
:1006C000114000F4E060084318490843186070477F
:1006D00070B5154B1C68C4F302230124C3F1070550
:1006E000052D2EBF0F2504FA05F56D1E1E1D072EC4
:1006F00034BF0023DB1E2940994004FA03F3BDE810
:1007000070405B1E1A401143C8E7010007D4012264
:1007100000F01F01064B8A40400943F82020704733
:1007200000E400E018ED00E00CED00E00000FA0548
:1007300000E100E038B5040001D1012032BD00F035
:100740004BF818B900F044F800F02CF92DE090F8BF
:100750003D10012901D001207047022180F83D1091
:100760000168CA6842F00102CA600068DFF87010D0
:10077000884218BFB0F1804F07D0DFF86810884278
:100780001CBFDFF86420904209D1816801F00701A5
:10079000062908D0016841F00101016003E0026808
:1007A00042F0010202600020704702206870211DA3
:1007B000206800F0BFF80120A872A870E8702871C6
:1007C0006871A871E871287268726870002032BD83
:1007D000002129702046704704F13C056878704775
:1007E000002C0140000400400008004010B5044601
:1007F000206801698A0715D5C1688A0712D56FF08C
:100800000201016101222277806910F0030F204666
:1008100002D000F0C8F803E000F0C6F800F087F856
:1008200000202077206801694A0715D5C1684A076A
:1008300012D56FF00401016102222277806910F461
:10084000407F204602D000F0AEF803E000F0ACF8A4
:1008500000F06DF800202077206801690A0715D59F
:10086000C1680A0712D56FF00801016104222277DE
:10087000C06910F0030F204602D000F094F803E0A6
:1008800000F092F800F053F800202077206801690A
:10089000CA0615D5C168CA0612D56FF010010161EC
:1008A00008222277C06910F4407F204602D000F071
:1008B0007AF803E000F078F800F039F800202077AB
:1008C00020680169CA0708D5C168CA0705D56FF055
:1008D00001010161204600F0C4F8206801690A06A0
:1008E00008D5C1680A0605D56FF080010161204670
:1008F00000F0CAF8206801694A0608D5C1684A06AE
:1009000005D56FF040010161204600F0BEF8206877
:1009100001698A060AD5C1688A0607D56FF02001E9
:1009200001612046BDE8104000F0B0B810BD20467F
:1009300000F0ADB870B5174E0368174C174DB042B4
:1009400018BFB0F1804F03D0A84218BFA04209D110
:100950004A6823F070031343B0421CBFB0F1804FCC
:10096000A84201D0A04203D1CA6823F440731343C4
:100970004A6923F0800313430360B0428B68C3626B
:100980000A68826202D10969054A11600123436144
:1009900070BD0000002C0140000800400004004031
:1009A000302C0140704770477047000080B500F060
:1009B0006FF800F011F800F07DF800F0F3F800F0A7
:1009C00047F900F0BBF900F0C1F900F063FB00F05B
:1009D000D7F900F083FBFEE718B593B0282109A8EA
:1009E00000F0A0FB1421684600F09CFB05A9002044
:1009F00000220023002481E81D0005224FF48031ED
:100A0000012309920A910C930D9311914FF4003236
:100A100002234FF460110B921093129109A8FFF773
:100A200065FB08B100F024F8022101910F204FF47A
:100A30008061009003910294049402216846FFF7BC
:100A4000DFFC08B100F014F801214FF48072059129
:100A5000069205A800F06AFB08B100F009F814B08E
:100A600010BD00680649884208BF00F039BC7047D5
:100A700080B50449002000F02FFE72B6FEE70000AA
:100A800000080040285300087047704770477047BF
:100A900080B50748016841F0100101600320FFF7AD
:100AA0000AFE0020FFF7BEFD00F020FE002002BD80
:100AB0000020024000B585B010220021684600F0F9
:100AC00037FE2148016841F010010160026802F020
:100AD000100204920499026842F020020260036846
:100AE00003F0200304930499026842F004020260B8
:100AF000036803F00403049303230499026842F09B
:100B0000080202604FF40052006800F008000490F0
:100B100004990092019369460C4800F013FE49F6CF
:100B2000F3110091032201926946094800F00AFE80
:100B30004FF2FF310091032201926946054800F00F
:100B400001FE05B000BD00BF1810024000100140BA
:100B500000080140000C01400901020002D437489E
:100B600081547047364B02F00F021A4402F8041CFD
:100B7000704730B500F007000123C0F10704052CD1
:100B80002EBF0F2403FA04F4641E051D072D34BF85
:100B90000020C01E2140814003FA00F0401E10409A
:100BA000084330BD38B52748274C0168274D41F030
:100BB000010101600022006800F0010000900021A6
:100BC00000982068C0F30220FFF7D3FF01460C20F5
:100BD000FFF7C2FF4FF480502860002220680021F8
:100BE000C0F30220FFF7C5FF01460D20FFF7B4FF59
:100BF0004FF400502860002200210E20FFF768FD0E
:100C00000E20FFF782FD002200210F20FFF760FD7C
:100C10000F20FFF77AFD002200211020FFF758FD7A
:100C20001020FFF772FD002200211120FFF750FD78
:100C3000BDE832401120FFF768BD000000E400E08D
:100C400018ED00E0141002400CED00E000E100E0BF
:100C500080B5184818494FF0FF324FF48073016097
:100C60004260836000F048FE18B1BDE80140FFF724
:100C7000FFBE01BD00681049884200D0704780B5B2
:100C800000F0DAFE0D480E4A016841F00061016093
:100C90000121006800F000600090009811600022BF
:100CA00000210320FFF714FDBDE802400320FFF7F9
:100CB0002CBD000088320020002800401C1002409B
:100CC0003C04424230B50FF2C434214411F8013CD7
:100CD000DFF87413181805680D402A43026030BD10
:100CE00010B500F017F824F0200404E010B500F06F
:100CF00011F824F040042243026010BD10B500F04A
:100D000009F824F08004F6E710B500F003F824F4A5
:100D10004074F0E70FF274330B4413F8011C081809
:100D20000468704710B5FFF7F5FF24F44064E2E76C
:100D300010B5FFF7EFFF24F44054DCE780B5C3485B
:100D4000C34900F00BF800B116E001BD80B5C14801
:100D5000C14900F003F800B10EE001BD01604FF49D
:100D6000E13200230C2142608360C3600361416172
:100D70008361C36100F068BEBDE80140FFF778BE43
:100D800018B58DB01C22002106A800F0D1FC142259
:100D9000002101A800F0CCFCB048B14C416841F4FE
:100DA000802141600923416801F48021009100996C
:100DB000026842F0080202600068AA4A00F00800D7
:100DC0000090204600990192032103910022029392
:100DD000049201A900F0C8FFA349019104220292E4
:100DE00001A9204600F0C0FFA04C1022022120469D
:100DF000FFF768FF4FF4805202212046FFF798FF6B
:100E000000F056F8FFF76CFF00F052F8FFF76EFFA6
:100E1000802202212046FFF771FF00F049F8FFF71A
:100E200073FF00F045F8FFF77DFF00F045F8FFF78E
:100E300049FF00F041F8FFF77BFF00F03DF8FFF7B6
:100E40004FFF00F039F8FFF751FF802203212046C1
:100E5000FFF754FF00F030F8FFF756FF00F02CF8D2
:100E6000FFF760FF8248834B01688349834C00226F
:100E70001A70802008600C214FF4E13200230A919F
:100E800006920793089309930B930C9306A92046A7
:100E900000F0DEFF206920F490402061606920F0BE
:100EA0002A006061E06840F40050E0600EB010BDC0
:100EB000002202212046704700220321204670476D
:100EC0002DE9F84185B0044610220021684600F063
:100ED0002FFC21685E4A6A4EDFF8A8816A4F5F489E
:100EE00091424FF4805545D1016841F48041016041
:100EF000026802F48042049200F08AF84FF4007114
:100F000000F08CF84FF4806000F096F810207060CC
:100F100000218020F060B16031617161B161C6F87B
:100F20000080F561304600F0E9FF08B1FFF7A0FD51
:100F300008F11400002126637064B1640020F0649D
:100F40007065B06580212020F0653165746235667A
:100F500006F1440000F0D2FF08B1FFF789FD06F169
:100F600044006063B466002200212520FFF7B0FB37
:100F7000252048E0384A914247D1416841F4003188
:100F80004160416801F40031049100F041F804210E
:100F900000F044F8082000F04FF806F1880708F147
:100FA0003C003860102179600022BA608020F8602F
:100FB0003A617A61BA61FD61384600F09FFF08B17D
:100FC000FFF756FD27637C6208F128007864002152
:100FD000B9640020F8648021396578650021B9651D
:100FE0002020F865396606F1CC05284600F086FF1A
:100FF00008B1FFF73DFD6563BC6600220021262095
:10100000FFF766FB2620FFF780FB06B0BDE8F08106
:101010000499026842F0040202607047006800F020
:10102000040004900222049800910192032103918C
:101030003846694600F086BB00210090019102917C
:101040003846694600F07EBBEFBFFFFF0832002044
:10105000003801404832002000440040181002408F
:10106000000C0140040004040800080400000240D1
:101070000CED00E027E400E004E100E0004800405F
:10108000B42C00204400024000080140081C3044F9
:10109000586C800080B50E480E49016001F060F880
:1010A00018B1BDE80140FFF7E3BC01BD81B00068A5
:1010B0000849884209D10848026842F040020260AB
:1010C000006800F040000090009801B070470000F8
:1010D000BC320020003002401410024010B50E4C0B
:1010E000206810F10F3F0AD05FF0F030206001F06F
:1010F00047F801F07FF809480168491C01605FF07A
:10110000F03020600648006801F086F8002020607A
:1011100001F02EF910BD00BF28000020EC320020A5
:10112000C8320020002201F079B900002DE9FC410D
:101130000646604D3078C10750D5A8690024C1002B
:1011400009D4A86940F08050A8610124A86900F082
:10115000805000900098584F3868C10511D4386805
:1011600040F480703860FFF757FA80463868C10550
:1011700007D4FFF751FAA0EB08006528F6D3032047
:101180003FE0E86910F440701EBF716801F44071DF
:10119000884218D04949E86901220A60002320F4F6
:1011A00040700B60E861C0070DD5FFF735FA0746C0
:1011B000E869810707D4FFF72FFAC01B41F2893194
:1011C0008842F5D3DBE7EA69706822F44072024393
:1011D000EA611CB1A86920F08050A86130788107CD
:1011E00005D52A68B06822F4404202432A6031786B
:1011F000C80605D52968F06821F4800101432960FB
:101200000020BDE8F681000010B5002101282C4C1B
:1012100025D0022843D010284AD160682268D30123
:1012200046D500BF29A1C0F38342C003895C0CD519
:10123000606800BF29A3234AC0F34040185CB2FB9A
:10124000F0F308461946414301E01F4A51436068E4
:1012500042022DD449000320B1FBF0F128E0206ABE
:1012600040F202320240B2F5817F08BF4FF40041E4
:101270001ED000F44072B2F5007F05D1626A930778
:1012800048BF49F6404113D400F44070B0F5407FA8
:101290000ED1206882030BD54FF2244108E0FFF7FE
:1012A00058F96168C1F38131491C4900B0FBF1F183
:1012B000084610BD04100240007000404004424245
:1012C0000010024000127A0000093D0002030405EC
:1012D000060708090A0B0C0D0E0F10100102000082
:1012E00002494A68087882184A6070471000002056
:1012F00010B50400A0686268431C9A4206D32268B5
:101300001154401CA060E068401CE060A068616867
:1013100088420DD1A2682168206901F079F9A1689D
:10132000884203D05FF0FF30E06001E00020A06061
:1013300010BD2DE9F84F0F0090461E003900012521
:101340005FF0010903E0B1FBF8F119F10109414532
:10135000F9D2B14500D2B146DDF82CA000900A9C2C
:101360005FEACA7019D4002C17D05FEA8A7004D5DE
:10137000002E02D15FF0300B01E05FF0200B002C5B
:101380000BD0A14509D2641E5946C9B20098FFF797
:10139000AFFF0098C0680028F1D50098C068002809
:1013A0002DD402E0761E08FB05F5022EFAD2B7FB1B
:1013B000F5F04045F7D2B7FBF5F005FB1077114982
:1013C000095C0098FFF794FF0098C068002804D4D7
:1013D000B5FBF8F5002DEED1FFE75FEACA700ED538
:1013E000002C0CD0002C0AD0A14508D2641E20216C
:1013F0000098FFF77DFF0098C0680028F2D5BDE88F
:10140000F18F0000745400082DE9FC4706000F001E
:1014100091461D00002F01D5784200E038005FF0B2
:10142000010803E090FBF9F018F101084845F9DAEA
:10143000A84500D2A8460A9CDDF82CA0002C05D0B7
:10144000002F02D45FEA4A7000D5641E5FEA8A70FA
:1014500001D5002D10D05FEACA700DD4002C0BD03E
:10146000002C09D0A04507D2641E20213000FFF7D0
:101470003FFFF0680028F3D5F068002831D4002F32
:1014800005D57F422D213000FFF732FF06E05FEAED
:101490004A7003D52B213000FFF72AFFF06800289F
:1014A0001FD41AF0030002280FD1002D0DD1002CFB
:1014B0000BD0002C09D0A04507D2641E302130008B
:1014C000FFF716FFF0680028F3D5F068002808D46D
:1014D000CDF804A000942B004A4639003000FFF7F5
:1014E00028FFBDE8F387F0B597B004000E001500A3
:1014F00007A802904020039000200490069400204A
:1015000005903178761C0800C0B2002815D008007C
:10151000C0B2252840F0C680002201203178C9B22F
:10152000232913D02B290DD02D2902D0302905D005
:1015300010E052F00102761C0DE0BBE052F0020216
:10154000761C08E052F00402761C04E052F0080217
:10155000761C00E000200028E0D1002006E0761C88
:101560000A23C9B203FB00113039080031780B009F
:10157000DBB2303B0A2BF2D300233178C9B22E29DB
:101580000ED1761C06E0761C0A27C9B207FB0311B0
:1015900030390B0031780F00FFB2303F0A2FF2D301
:1015A000317801E0761C31780F00FFB26C2FF9D052
:1015B0000F00FFB2682FF5D0C9B225296BD058298A
:1015C00034D063290AD0642914D0702952D07329E9
:1015D0003AD075291CD0782928D061E02868286085
:1015E000286801682868001D2860C9B202A8FFF7B2
:1015F0007FFE55E029682960296809682F683F1D2A
:101600002F60019200900A2202A8FFF7FDFE47E03A
:1016100029682960296809682F683F1D2F60019299
:1016200000900A2202A8FFF784FE39E029682960A9
:10163000296809682F683F1D2F60019200901022D1
:1016400002A8FFF776FE2BE0286828602868076864
:101650002868001D286039787F1C0800C0B2002867
:1016600007D0C9B202A8FFF743FE05980028F2D5BB
:10167000FFE715E028682860286801682868001DD1
:10168000286000200190082000900823102202A862
:10169000FFF74FFE04E0252102A8FFF729FEFFE730
:1016A000761C03E0C9B202A8FFF722FE05980028C5
:1016B0007FF527AF059801280BDB0498002804D09C
:1016C000049A07A9200000F0A3FF05990498411887
:1016D0000591059817B0F0BD0CB480B502AA009230
:1016E0006A46FFF700FF02BC5DF80CFB0E4881B0B4
:1016F000016841F001010160026802F001020092FC
:101700000099426842F080524260406800F0805088
:10171000009000980548016821F0E06141F00071F7
:10172000016001B0704700BF181002400400014082
:1017300010B5044610460A460146204600F0D4FF84
:10174000204610BD2DE9F8474FF0000E00245D4AF9
:101750005D4BDFF878814FF00F0982460CE0D768C7
:101760003840D06006E095604D68AD02F7D5D0688E
:101770000743D7600EF1010E0F6837FA0EF000F044
:101780009F80012000FA0EF63740B742F2D1486838
:1017900038B301281AD002281DD003282ED01128D2
:1017A00016D012281AD04A4DA8421CBF494DA84253
:1017B00017D0494DA8421CBF484DA84211D0484DF2
:1017C000A8421CBF474DA8420BD018E0CC6816E0D9
:1017D000CC68241D13E0CC68083410E0CC680C34CD
:1017E0000DE0886808B9042409E0012819BF08241D
:1017F000CAF814600824CAF8106000E00024B7F5A5
:10180000807F03D250464FEA8E0C05E0AEF108050A
:101810000AF104004FEA850C056809FA0CF6B54395
:1018200004FA0CF6354305604868C000A2D5D8F824
:10183000000040F00100C8F80000D8F8005005F0A2
:10184000010500954FEA8E0500984FEA9E0053F877
:10185000206005F00C0C09FA0CF526EA0505224E6D
:10186000B24508BF00260ED0204EB24508BF012663
:1018700009D01F4EB24508BF022604D01D4EB24506
:101880000CBF0326042606FA0CF6354343F8205015
:10189000F8434D68ED0315684CBF3D4305401560A6
:1018A0004D68AD0355684CBF3D43054055604D68DC
:1018B0009668ED024CBF47EA060500EA060552E7C6
:1018C000BDE8F18700040140080001401810024003
:1018D0000000111000001210000021100000221062
:1018E000000031100000321000080140000C0140DF
:1018F000001001400014014010B504003FD0607C8E
:1019000020B9002121742046FFF7B4F90220607449
:10191000204600F03FF880BB204600F05AF860BB3C
:1019200020684168C908C9004160A068DFF86010FC
:1019300018B148684008400048600A68A06822F46E
:10194000607202430A60606810F1010F04D1012047
:10195000FFF75AFC88B1401E21688A6812091201FB
:1019600042EA10428A6080B22168CA68120C40EADA
:101970000240C86000F02BF818B104206074012008
:1019800010BD0121E0736173A1736174002010BD6B
:101990002C6C004038B5040001D1012032BD00F0AC
:1019A00010F8FEF739FE054620684168080706D49E
:1019B000FEF732FE00F023F8F6D3032032BD0020FC
:1019C00032BD2068416821F008014160704720461F
:1019D0001AE038B50446FEF71FFE05462068416848
:1019E0008A0606D4FEF718FE00F009F8F6D30320A5
:1019F00032BD416841F010014160002032BD401B02
:101A000040F2E9318842704738B5044620684168A1
:101A100021F010014160FEF7FFFD05462068416896
:101A2000880606D4FEF7F8FDFFF7E9FFF6D303209A
:101A300032BD002032BD00000249FFE701200860EE
:101A40007047000020000E4238B5040001D101208B
:101A500032BD00F021F808B900F022F800F012F8C9
:101A600000F023F8FFE7416100F001F832BD206883
:101A7000C16841F40051C160002068602021697094
:101A8000A9707047242068702068C16821F4005153
:101A9000C160204600F029B904F138056878704724
:101AA000002129702046FFF70BBA2068016921F454
:101AB000904101612068416921F02A017047416924
:101AC00021F040014161606B704738B504462068E1
:101AD0000168C268436911F00F0007D1880659D523
:101AE000930657D52046BDE83240BCE0D80702D463
:101AF00012F4907F4ED0C80705D5D50503D5E06B0D
:101B000040F00100E063480705D5DD0703D5E06B31
:101B100040F00200E063880705D5DD0703D5E06BE0
:101B200040F00400E063080707D5950601D4D80704
:101B300003D5E36B43F00803E363E06B002839D07F
:101B4000880604D5910644BF204600F08CF8206832
:101B50004069E16B0A0701D4400615D500F031F861
:101B6000206841694A060AD5FFF7A9FF38B100F09D
:101B700022F8F8B1606B416BBDE83440084720465D
:101B8000BDE8324000F0E3BD204600F0E0FD00205B
:101B9000E06331BD080605D5130603D52046BDE830
:101BA000324025E0480605D5510603D52046BDE85C
:101BB00032404BE031BD0FF22D014163606B00F00C
:101BC000CAB92046FFE70168CA6822F49072CA6069
:101BD00001684A69520852004A61202180F83A108F
:101BE00070470000406A0021C185C18400F0AFBD8C
:101BF00090F83910212927D18168B1F5805F04BFA1
:101C00000169002909D1016A03680A88C2F3080240
:101C10005A60016A8A1C026205E0016A4A1C02627B
:101C2000036809785960C18C491EC18489B249B9D9
:101C30000168CA6822F08002CA600068C16841F089
:101C40004001C160002070470220704780B50168E4
:101C5000CA6822F04002CA60202180F8391000F0E2
:101C600077FD002002BD80B590F83A1022293AD1C4
:101C70008168826AB1F5805F0AD1016969B9036838
:101C80005968C1F308011180826A911C81620FE0DA
:101C9000002904BF0169002902D10368596803E0E3
:101CA0000168496801F07F011170816A4A1C8262F3
:101CB000C18D491EC18589B299B90168CA6822F0EF
:101CC0002002CA600168CA6822F48072CA60016892
:101CD0004A69520852004A61202180F83A1000F007
:101CE00038FD002002BD022002BD10B50446226866
:101CF0001169E06821F4405101431161D36818492A
:101D0000A0680B402169034360690B430343D36020
:101D10005169A06921F440710143516111498A421E
:101D200002D1FEF716FC01E0FEF70BFC62681921F8
:101D300048439200B0FBF2F16423B1FBF3F203FBE2
:101D4000121109013231B1FBF3F000F0F00101EBA7
:101D50000211226800F00F004018906010BD0000D2
:101D6000F3E9FFFF003801402DE9F0410B681B0249
:101D700002461B0C93FAA3F0B0FA80F85BE04FF038
:101D80000115A8F1080005FA00F040F0806008E0B5
:101D9000C0074ED5B8F1080FF1D240F2011000FA99
:101DA00008F00D69D668070ABE4397FAA7F7B7FA95
:101DB00087F74FF00F0EBD4090FAA0F7B7FA87F7FC
:101DC000BF000EFA07F73543D56002EB10652C68AB
:101DD0004E6824EA070C90FAA0F700F031F84E683C
:101DE000012E18BF092E24D190FAA0F7B7FA87F771
:101DF0002C684FF0030EBF000EFA07F724EA070C19
:101E000090FAA0F78E6800F01BF890FAA0F7B7FAE6
:101E100087F790FAA0F0CE682C684FF0040EBF0050
:101E2000B0FA80F00EFA07F78000BC4386402643E4
:101E30002E6008F1010833FA08F0A9D1BDE8F0815D
:101E4000B7FA87F7BC00A64046EA0C062E6070473A
:101E50007FB504460E46E0680125810441D4E2685E
:101E6000254970680A40F168024330690A43024319
:101E7000E2602169B06821F4405101432161616948
:101E8000706921F4407101436161684600F062FCB1
:101E900016498C4208BF039906D0154884421CBFDE
:101EA00014498C421DD1029900291CBF30680028BA
:101EB00017D0192251438000B1FBF0F16423B1FB2C
:101EC000F3F203FB121109013231B1FBF3F000F020
:101ED000F00101EB021100F00F00401880B2002564
:101EE000A060284604B070BD00000000003801402A
:101EF0000044004000480040F3E9FFFF30B508B956
:101F0000012030BD0468DFF834120919142200F1F1
:101F10003803B1FBF2F292009A600222DFF820123D
:101F2000596080F821202568416882686FF30D159B
:101F30000D43C168154302690D4341691543826928
:101F40000D43C16915430D43256000241C6000F05A
:101F50004CF8002030BD38B590F821200024022A2A
:101F600000F1340103D00420486001243BE0026802
:101F7000136823F00E0313600268DFF8C831156898
:101F80006D086D00156002689A4208BF012222D0D8
:101F9000DFF8B4319A4208BF10221CD0DFF8AC3110
:101FA0009A4208BF4FF4807215D0DFF8A4319A42EC
:101FB00008BF4FF480520ED0DFF898319A4208BF24
:101FC0004FF4803207D0DFF890319A420CBF4FF4C3
:101FD00080124FF08072DFF884311A6000F005F84B
:101FE000096801B18847204632BD012280F82120CE
:101FF00080F8204070472DE9F84F00F128020427AF
:102000005169554BD1F800E0056854492E68D2F863
:1020100018A0504CDFF83881DFF83091DFF828B194
:10202000DFF820C107FA0AF71EEA070F2DD077075D
:102030002BD52E68B60603D42E6826F004062E6033
:102040000568654508BF042318D05D4508BF4023D7
:1020500014D04D4508BF4FF480630FD0454508BFED
:102060004FF480430AD0A54208BF4FF4802305D027
:102070009D420CBF4FF480034FF080630B605168AA
:10208000002958D0BDE8F44F0847022707FA0AF79D
:102090001EEA070F32D0B70730D52E68B60606D431
:1020A0002E6826F00A062E60012580F8215005686A
:1020B000654508BF022318D05D4508BF202314D012
:1020C0004D4508BF4FF400730FD0454508BF4FF48E
:1020D00000530AD0A54208BF4FF4003305D09D42FB
:1020E0000CBF4FF400134FF000730B60002180F819
:1020F00020101168F9B1BDE8F44F0847082101FA32
:102100000AF11EEA010F16D0310714D52B6823F00F
:102110000E032B600124916953698C405C6001219E
:10212000116180F82110002180F82010916811B110
:10213000BDE8F44F0847BDE8F18F0000F8FFFDBF90
:1021400000000240080002401C0002403000024033
:1021500044000240580002406C000240040002406B
:1021600010B5040001D1012010BD607920B9002113
:1021700021712046FEF79AFF01206071002010BDFA
:1021800072B61448144A10601448016841F0010105
:1021900001604FF0E0201249C0F8081D11481049B5
:1021A000096801604FF0E0200F4941614FF00701DD
:1021B00001610021C0F8181D0C49C0F81C1D0C4914
:1021C000C0F8201D704701B500F014FBBDE80140C8
:1021D00070470000AC320020C8320020001000E040
:1021E00000000008CC320020FFF90000000000FFD2
:1021F0000000FF4080B500F071FB00F0B1FB00F083
:1022000025FC00F02FFC00F039FC00F043FC00F04E
:102210004DFC00F057FC01BD70B588B00020079060
:102220003426454C49A1009604F1B40542F2A0338E
:1022300004F1E802284600F051FC08B1FEF718FC52
:1022400000234FF4806207A9284600F0B3FC08B1D0
:10225000FEF70EFC002201210492059103910291E8
:10226000B420079A06904FF48061019100920023F8
:102270000FF2150238A1204600F0FCFC08B1FEF771
:10228000F7FB08B070BD000070B52C4D294600204A
:1022900000F0D6F905F12401002000F0D1F905F194
:1022A0007C01002000F0CCF90220009000230022E5
:1022B0000021002000F0D0F9532205F1E00100F0E8
:1022C00041F8452205F5847100F03CF8472205F5F8
:1022D000987100F037F8472205F5AC7100F032F83C
:1022E000452205F5C07100F02DF8522205F5D47194
:1022F00000F028F80FA205F5E87100F023F800BF00
:1023000018A205F5FC7100F01DF800F067FD00F063
:1023100073FE00F00DFF0A4E3268521C326005F564
:10232000097100F00FF841F2883000F0A9FF002C8D
:10233000F2D061BD525454002C0000209C4C000887
:10234000C43200200020FFF7C7B90000627974652D
:1023500020706F6F6C20300074687265616420308B
:10236000000000005254540D0A526F636B732E002C
:102370004FF00000284A106062B64FF080504FF0D6
:10238000E021C1F8040DBFF34F8FBFF36F8FFEE75D
:1023900043F2D020C2F2000043F2D422C2F2000283
:1023A0004FF00003016881B10360EFF3098C2CE961
:1023B000F00F43F22834C2F200044CF804ED256813
:1023C000C1F808C00DB18D61236072B61168A1B16A
:1023D000016062B64F6843F22834C2F200048D698E
:1023E00007F101074F602560D1F808C05CF804EBE5
:1023F000BCE8F00F8CF30988704772B61168016071
:1024000009B962B6F9E74FF000674FF0E028C8F865
:10241000047D62B6DEE70000EC32002000B500BFAC
:10242000130096469446103928BFA0E80C50FAD8FD
:102430005FEA417C28BF0CC048BF40F8042BC907A5
:1024400028BF20F8022B48BF00F8012B00BD000078
:1024500010B5DFF880420320206103206061DFF8BF
:102460007802A061DFF87412E1614FF480612162AB
:102470000021A162002161620021E1622066DFF893
:10248000600260661020A066002020670020E066E1
:102490000020606742A1E01D00F040FFDFF8441219
:1024A000200000F03BFF2020A07110BD2DE9F04777
:1024B00005000E0014000027D5F80C80286980451F
:1024C00005D28246BAEB080ABAF1010A07E0D5F84C
:1024D00008A0BAEB080A10EB0A0ABAF1010AA868C8
:1024E000B0EB0800824503D3D5F808A0BAEB080A80
:1024F000A24500D3A246686800EB080952463100A5
:10250000484600F017FF1AEB07075644B4EB0A04DD
:102510001AEB080AD046A868804501D15FF0000890
:10252000C5F80C80002CC9D13800BDE8F0872DE932
:10253000F04104000E001500D4F80C80A768B7EB3A
:102540000807BD420BD2606800EB08072A00310083
:10255000380000F0EFFE15EB0805E56010E03A00EA
:10256000606880443100404600F0E4FEED1BD4F882
:1025700004802A0006EB0701404600F0DBFEE56020
:10258000BDE8F08101000869CA68824204D3896805
:10259000491E8A1A801801E0801A401E7047000008
:1025A00052545400F8B50D001400DFF8282118210A
:1025B0004843104410F118077869002803D0022816
:1025C0001CD00ED321E03800FFF7DCFFA04201D27F
:1025D000002605E02600220029003800FFF7A7FFAB
:1025E00014E03800FFF7CEFF0600A64200D3260015
:1025F000320029003800FFF79AFF07E02200290087
:102600003800FFF753FF060000E000263000F2BD5F
:10261000F8B504000D001600DFF8B80000780028B7
:1026200001D1FFF715FFEFF31187202080F3118808
:10263000320029002000FFF7B5FF87F31188F2BDB3
:1026400038B504000D00280000F0C8FE0200290083
:102650002000FFF7DDFF32BD2DE9F0410400884680
:1026600015001F00DFF86C6030000078002801D1F1
:10267000FFF7EEFE20003169884227D2EFF3118286
:10268000202181F31188002817D0182101FB00F3C5
:102690003344C3F8188001FB00F33344DD6101FBD0
:1026A00000F333441F62002301FB00F43444A362AF
:1026B000002301FB00F131444B62069B1821484383
:1026C0003044C36282F31188002001E05FF0FF30E4
:1026D000BDE8F081D42F002094540008B4240020D9
:1026E0009C320020BC54000862F30F2262F31F42A8
:1026F000401810F0030308D0C91A1FD3DB0748BFE6
:1027000000F8012D28BF20F8022D130030B4144624
:102710001546103928BF20E93C00FAD8490728BFE0
:1027200020E90C0048BF40F8042D890028BF20F89C
:10273000022D48BF00F8012D30BC7047C91818BFE2
:1027400000F8012DCB0728BF00F8012D7047704716
:102750007047704710B5044600F00CF8206000F098
:1027600013F8606000F016F8A060606800F01AF8D6
:10277000E06010BD1A48006800F00C00082808BF8F
:1027800000F016B8174870471549174A0968C1F391
:10279000031104E01249154A0968C1F30221515C92
:1027A000C84070470E49114A0968C1F3C221F6E7D3
:1027B0000B49086800F48030B0F5803F07D1086805
:1027C000084AC0F34040401CB2FBF0F000E008486B
:1027D0000968C1F38341891C484370470000000029
:1027E0000410024000127A0064540008B454000837
:1027F00000093D0043F2F821C2F20001086800F12F
:102800000100086043F22833C2F200031A6852B193
:10281000A2F101021A6032B943F2FC23C2F20003B2
:102820004FF00100186043F20831C2F2000108685D
:1028300002683AB143F20C33C2F200034FF00102D6
:102840001A600EE000F1040043F20433C2F2000308
:102850001A68904204D143F20033C2F200031868B0
:10286000086043F2FC23C2F200031A682AB943F25B
:102870000C31C2F20001086868B301B543F20C31B3
:10288000C2F20001086808B100F0C4FD43F2FC2365
:10289000C2F200031A68E2B100F0CEFD43F2EC2070
:1028A000C2F200000168A1B943F2D020C2F20000D8
:1028B000016843F2D422C2F2000213684EF60450BB
:1028C000CEF2000040F20002C1F20002994200D0B4
:1028D0000260BDE80140BFF34F8F704780B5002014
:1028E000144908600020144908600422002113489C
:1028F00000F0D6FD04220021114800F0D1FD202077
:1029000010490860802200210F4800F0C9FD002016
:102910000E49086000200E49086000200D4908603B
:1029200000200D4908600D48016851F08071016078
:1029300001BD00BFD0320020D4320020E0320020A0
:10294000E4320020E83200207C300020D832002021
:10295000DC320020EC320020F0320020F432002083
:1029600070B586B00020264908600020254908601F
:1029700000202549086000202449086000202449DF
:102980000860244C80220021200000F089FD2248AC
:10299000046022480460224D14F17C00286001216B
:1029A000286800F091FD28601E4C1F4820601F4DD4
:1029B0004FF4806028601E4E002030601D4800F0FB
:1029C00093FD0100002005900020049030680390E2
:1029D000306802902868019020680090164B174AD2
:1029E000174800F085FD00F079FD0028E6D10020B1
:1029F0001449086000201449086006B070BD00BF8B
:102A0000F832002028330020FC3200200C33002054
:102A100018330020FC300020003300200833002051
:102A2000043300201C330020B42800202033002071
:102A3000243300204C5400084D495441F54E000801
:102A4000782E00201033002014330020002003498A
:102A50000860002002490860704700BF2C33002046
:102A6000303300200020034908600020024908603C
:102A7000704700BF54330020583300200020034922
:102A80000860002002490860704700BF44330020FE
:102A900048330020002003490860002002490860F4
:102AA000704700BF3C330020403300200020034922
:102AB0000860002002490860704700BF34330020DE
:102AC00038330020002003490860002002490860D4
:102AD000704700BF4C330020503300202DE9F047F1
:102AE00004008846150099460026002C01D10226D4
:102AF00048E00898342801D0022643E000F09CFD0D
:102B0000264F3968491C396000F09AFD2448D0F8F6
:102B100000A0002002E0DAF82CA0401C214909683E
:102B2000884201D25445F6D100F086FD3968491E2D
:102B3000396000F085FD00F087FD544501D1022683
:102B400020E0002D01D103261CE0B9F1640F01D271
:102B5000052617E0144800681449884200D113265E
:102B6000DFF84CA0DAF8007000F0BFFC0743002F3C
:102B700008D0DAF8007000F0B8FC0743B7F1F03F76
:102B800000D21326002E06D14B462A0041462000D3
:102B900000F06EFD06003000BDE8F087EC3200204A
:102BA0003433002038330020D0320020782E00202B
:102BB000280000202DE9F04705000E001700984678
:102BC0000024002D01D1022420E0286825498842F4
:102BD00001D002241AE0002E01D1032416E0002FB8
:102BE00001D1052412E0E869B84201D205240DE0C4
:102BF000B8F1000F0AD01C48D0F8009000F075FC26
:102C000050EA0909B9F1000F00D00424002C05D1C5
:102C1000164800681649884200D11324002C14D1AC
:102C2000DFF844A0DAF8009000F05FFC50EA0909F0
:102C3000B9F1000F09D0DAF8009000F056FC50EA24
:102C40000909B9F1F03F00D21324002C06D1434604
:102C50003A003100280000F07FFD04002000BDE8AC
:102C6000F08700BF4554594228000020D032002090
:102C7000782E00202DE9F44F86B00400884699464E
:102C8000109D0026002C01D10E2683E01698B42852
:102C900001D00E267EE000F0CFFC4A4F3968491C77
:102CA000396000F0CDFC5FF0000A4748D0F800B072
:102CB000280000F00FFC1199491E00F0FAFB00F00B
:102CC00010FC002118E0DBF80C20954206D3DBF85D
:102CD0001020954202D200255FF0010ADBF80C209B
:102CE000904206D3DBF81020904202D200255FF01C
:102CF000010ADBF888B0491C344A1268914206D2B6
:102D00005C4501D15FF0010ABAF1010FDBD100F09F
:102D100093FC3968491E396000F092FC00F094FC85
:102D20005C4501D10E2635E0002D01D1032631E0AE
:102D30000698002801D103262CE01198C82801D25A
:102D4000052627E01298202801D30F2622E01298AA
:102D50001399884201D218261CE01598022801D345
:102D6000102617E01A4800681A49884200D1132635
:102D7000DFF864A0DAF8007000F0B7FB0743002F1B
:102D800008D0DAF8007000F0B0FB0743B7F1F03F6D
:102D900000D21326002E11D14B46414615980590BE
:102DA000149804901398039012980290119801902F
:102DB0000095069A200000F09BFB0600300007B04B
:102DC000BDE8F08FEC320020D8320020DC32002049
:102DD000D0320020782E00202800002070B5854DCC
:102DE00000202860686005F108060324304600F0E2
:102DF000F4F80020B0606968F160686800B186602E
:102E00006E601436641EF1D1012070BD2DE9F043CF
:102E100087B08846914610B90120188056E00026F8
:102E2000012500221C4606E002A9B3B241F82300A6
:102E3000761C0025401C0178B9B1202902D0222936
:102E400006D00BE052EA0501F4D101700125F1E74B
:102E500012B100220270F9E70122EBE72900E9D064
:102E6000B1B20529E0D30B2003E02180B1B211B942
:102E7000022020802AE0029F06216846FEF752F9D0
:102E8000234606226946384600F086F8208860B15D
:102E9000002548B3032818BF042815D0082818BFF8
:102EA0000A2811D00C20208010E052490D6800E063
:102EB000ED683DB12946684600F012FD0028F7D1C3
:102EC0002D6906E0082020800A212180002016E0DC
:102ED00008356868B0B12968384600F001FD00285F
:102EE000F6D17DB120806D684B46424602A9B0B252
:102EF000A8474FF0FF32904204BF0921218007B05C
:102F0000BDE8F0830A20DEE72DE9FC410D00804694
:102F1000174608BF01213DD0686808B9022139E091
:102F2000B8F1000F07D0404600F090FC062828BFFB
:102F300003202BD240B928683B460622694600F0A0
:102F40002BF8388818BBE8462A4E346800E0E4685D
:102F500054B14146204600F0C3FC2169A94218BF84
:102F60000028F4D1072011E0746894B1E068706023
:102F70004146204600F077FC00202561A0603168C2
:102F8000E160306800B18460346000203880BDE8C2
:102F9000F38106213980FAE770B50D4604461146E3
:102FA0001E46224600E0521C52B110785F2818BF1E
:102FB0000028F8D1121B92B28A4203DB032007E0FB
:102FC000042108E02146284600F04FFC10B90520F6
:102FD000308070BD0021318070BD10B5044604A161
:102FE00000F041FC0022A260E260226110BD0000FE
:102FF00000000000C431002080B56A4640493CA072
:10300000FFF782FFBDF80000401E8041C00F02BDE7
:103010002DE9F843022884B00D4690461F4635A698
:10302000384C19D10FF2D0096868494600F058FCB5
:10303000002835D1204600F009FC7A6881B220468C
:10304000C04700F063F804F13C0000F0FFFB7A6831
:1030500081B204F13C0044E001280BD0204600F08E
:10306000F5FB7A6881B22046C04700F04FF84FF078
:10307000FF303AE0244805680DE0206800F0E6FBE8
:1030800081B27A6854F8080BC04700F03FF86068D6
:103090000028F2D1ED683DB32C69002CFAD0F6E798
:1030A000696801A800F0DFFB14A101A800F0F4FB9F
:1030B000494601A800F0F0FB6B463A46414601A89C
:1030C000FFF7A4FEBDF800000A3802280CD87A6881
:1030D00010A01921C047686800F0B8FB81B27A6877
:1030E0006868C04700F012F8002005B0BDE8F08322
:1030F000736800000D0A00002D6800002000000029
:103100000000002060510008C43100207A680221CC
:1031100030464047436F6D6D616E64206E6F742062
:103120007265636F676E697A65643A20000000001B
:1031300010B500F007FC0128044607D1002000F07C
:10314000A1FC0446012818BF00F010FC204610BD69
:103150002DE9F04FB7B08022002116A800F0C6FC80
:1031600038A116A800F07FFB4022002105A800F03E
:10317000BDFC002016A9019002910390834600F047
:103180000FFE31A60FF2D908324F0FF2C0090FF22D
:10319000C00A06E0019900F0DEFD514605A800F0E6
:1031A00062FB5FFA8BF301AA402105A800F0C0FC86
:1031B000044605A800F04AFB641E012CEAD9A41EAF
:1031C00008BF8BF0010BECD0514605A800F088FB3E
:1031D00078B300F0D7FD494605A800F081FBC0B9DF
:1031E0003C6811E0286800F031FB81B2039A55F881
:1031F000080B00F035F8039A0221304600F030F851
:1032000068680028EED1E4689CB12569002DFAD0E9
:10321000F6E76B4602AA414605A8FFF7F7FDBDF8A1
:1032200000000A38022804D85FF013010FA000F054
:10323000A7FB00F0B5FD514605A800F014FB0020E7
:103240000190AEE75C0000000D0A00003F000000A6
:1032500000000000C431002000F092BB00F0B4BBBD
:1032600010B50C4600F08CFB20B210BD436F6D6DA5
:10327000616E64206E6F7420666F756E640D0A0057
:10328000F8B5040000F0D8F9070020480568002DC3
:1032900004D1380000F0D4F9132036E01C48066849
:1032A00000F023F90643002E04D0380000F0C8F9DE
:1032B00013202AE01748854204D1380000F0C0F9F5
:1032C000132022E0002C04D1380000F0B9F90020CE
:1032D0001BE011490868002804D0380000F0B0F95C
:1032E000132012E0042028630120A8630020C5F801
:1032F0008400EC640868401C0860380000F0A0F905
:10330000280000F057FDD5F88400F2BDD03200202F
:1033100028000020782E0020EC3200205FEA000C0C
:1033200011F8012B00F8012B12B111F8012BF9E76C
:103330006046704762B38B0708D0521E11F8013BFC
:1033400000F8013B00F024808B07F6D1830740F0A2
:10335000208000BF103A07D330B4B1E83810103ADB
:10336000A0E83810F9D230BC530724BFB1E80810E8
:10337000A0E8081044BF51F8043B40F8043BD207D2
:1033800024BF31F8022B20F8022B44BF0B780370C6
:103390007047121F17D35B0009D151F8043B20F886
:1033A000023B1B0C121F20F8023BF6D20BE051F837
:1033B000043B00F8013B1B0A20F8023B1B0C121FC8
:1033C00000F8013BF3D238BF121D521E24BF11F882
:1033D000013B00F8013BF8D87047000000F1010301
:1033E000810704D010F8011B820781B1FAD102686D
:1033F000A2F10131914311F0803104BF50F8042F44
:10340000F6E709BAB1FA81F100EBD100401CC01A0D
:103410007047000080B500F00FF905490A68521C9A
:103420000A6000F00DF9034800F0F0FD01BD00BF97
:10343000EC320020782E002010B51348046800F00C
:10344000FBF80021114A1160002C19D0216B0029D2
:1034500016D1E169A161A1690D4A1160216AA142F9
:103460000ED0E16AE26B91420AD10A49226AE36A0C
:1034700041F82320084A126851F82210074A1160C7
:1034800000F0DEF810BD00BFD0320020FC3200207A
:10349000283300207C300020E8320020D432002085
:1034A00010B5040010000A0001002000FFF71CF90D
:1034B00010BD08447047494208447047401A70479D
:1034C0007047401A8010704700EB81007047012060
:1034D00070477047704770477047704700207047CB
:1034E00070477047704770477047EFF3058070472B
:1034F0002DE9F24F0500904699460B9FDDF830A06C
:103500000D9CDDF838B000263A00EF210A98FFF74D
:10351000C7FFB42200212800FFF7C2FF0098A8626D
:10352000C5F84480C5F848900A98E8606F61C5F80E
:103530002CA0C5F894A0C5F818B0C5F81CB0202080
:10354000C5F89C000A98FFF7C5FF7F1E3900FFF7FA
:10355000B0FFFFF7C6FF2861EC63C5F89840032071
:1035600028632D4868652800FFF7AAFFA8652B4946
:10357000280000F0CFFD00F05FF807002848286021
:10358000284A1068002806D127480560C5F88850E9
:10359000C5F88C500BE024480068D0F88C10C0F8B7
:1035A0008C50C1F88850C5F88C10C5F888000F9869
:1035B0001168491C11601D4C2168491C21600128BB
:1035C0001AD11B480468FFF790FF0443B4F1F03FA1
:1035D00007D318480468002C04D0E66BE06AE06367
:1035E00000E00024380000F02BF8280000F00EFD69
:1035F000002C0DD0E6630BE0380000F021F800F05D
:103600001BF82168491E216000F01AF800F01CF830
:103610000020BDE8F28F00BFE5520008E551000828
:1036200044524854DC320020D8320020EC320020D2
:1036300028000020D4320020EFF3108072B67047CB
:1036400080F310887047000080B5064800680028A5
:1036500007D10548006805490968884201D000F093
:103660007BFD01BDEC320020D0320020D43200209E
:10367000F8B504000E0015001F00342200212000C0
:10368000FFF70EFFBF08BF0066602800FFF722FFAC
:10369000A061E7612800FFF71DFF20612800FFF708
:1036A00019FF6061B7F10800A0600220E060280007
:1036B000FFF710FF3900FFF7FCFE0421FFF7FBFEC8
:1036C00006002000FFF708FF07003000FFF701FFAA
:1036D000076004213000FFF7EEFE06003000FFF720
:1036E000F8FE07002800FFF7F5FE38602800FFF716
:1036F000F1FEFFF7EEFE06602800FFF7EBFE042167
:10370000FFF7D7FEFFF7E9FE0F49016000202062B6
:10371000FFF792FF0D4921600D4B1968002904D174
:103720000C490C60E462246306E00A4909680A6BEC
:103730000C63D4622263E1621968491C1960FFF7C7
:103740007FFF0020F2BD00BFEEEEFFFF455459425F
:1037500038330020343300202DE9F04706008A4634
:103760009946D21C92089700FFF766FF3449D1F8BA
:1037700000800025C6F82080FFF762FF3900300086
:1037800000F0FAFC0400FFF757FF002C01D00125E0
:1037900003E0316A414500D10125002DEAD0CAF885
:1037A0000040002C03D0FFF74BFF002445E04946C2
:1037B00000293FD0234B1A68002A03D01024FFF7BA
:1037C0003FFF3AE0204AC8F86820C8F86C60C8F8A3
:1037D0007CA0C8F87870D8F8B020521CC8F8B02087
:1037E000B26AB46A641CB462002A06D1C6F82480A6
:1037F000C8F87080C8F8748009E0726AC8F8702050
:10380000546FC8F87440C4F87080C2F874800922FC
:10381000C8F830200122C8F83820C8F84C101968C0
:10382000491C1960FFF70CFF404600F0C3FAD8F8B6
:10383000844002E0FFF704FF10242000BDE8F08779
:10384000D0320020EC320020395000084FF0FF3118
:103850000246002000E0401C22B112F8013B0BB1EF
:103860008842F8D370474FF0FF3270B5002818BF78
:1038700000290AD0044600250B7843B1954206D2B0
:1038800000F027F818BF0029F6D1002070BD95423E
:103890003CBF0021217070BD4FF0FF3270B5002891
:1038A00018BF002905D09AB1044623781BB1641CC7
:1038B000FBD1002070BD00250B783BB1954205D2AD
:1038C00000F007F8F5D00029F6D1F2E700212170C9
:1038D00070BD11F8016B04F8016B6D1C002C704772
:1038E0004FF0FF32F0B50546D2B115B949B30878AB
:1038F00023E009B92878F0BD6C1C4B1C002604E0BD
:103900006D1C491C641C5B1C761C28780F78B8421F
:1039100004D118B114B10BB19642F1D3964201D142
:103920000020F0BD2978B94218BFC81B08D109B1E1
:103930002CB90BB9002003E01878404200E0207851
:1039400000B2F0BD10B5434C46A12023002204F183
:10395000880000F0D7FC08B1FDF78AF8402204F196
:1039600048013D4800F05AFD012010BD80B53B489C
:1039700000F032FE18B1BDE80140FDF779B801BD95
:1039800070B504460D46344EAAB22146304600F0CA
:103990001BFD0028F8D170BD10B52E4C207850B911
:1039A0004FF0FF3104F1880000F042FE08B1FDF74E
:1039B0005FF8002060702178481E20706078411CFC
:1039C00020446170007910BD11B581B0224C0122F4
:1039D00001A9204600F0F8FC0028F8D113BDE0B59D
:1039E0001F481C4D06686F6CB6B2C6F14006BE4259
:1039F0002ED0E819B74208D200F14801F21B281D69
:103A0000FFF798FCF71B2F7016E000F14801C7F193
:103A10004002281DFFF78EFCC7F1400028705EB100
:103A200005F144007F42324605F148013844FFF772
:103A300081FC29787118297005F1880000F028FEB2
:103A400008B1FDF715F86E64402E04BF00206864CD
:103A5000E0BD00002C2F002008320020B42F0020F1
:103A60005C00024053657269616C5F627974655FE6
:103A7000696E7075745F73656D6170686F726500F3
:103A8000FFF766BB80B588B00020079000234FF495
:103A9000806207A90F48FFF78DF808B1FCF7E8FF2F
:103AA0000422012104920591B420079A08234FF4BF
:103AB0008061069003930293019100920123064ACC
:103AC00007A10648FFF7D6F8401E8041C00F09B095
:103AD00000BD0000E0000020813A0008C42D002055
:103AE0005465726D696E616C0000000010B513467C
:103AF00000240422521E41EA0424FBD110F00302E8
:103B00000BD003E000F8011B5B1E521C2BB1042AF2
:103B1000F8D302E040F8044B1B1F042BFAD22BB160
:103B2000BDE810400A461946FEF7DEBD10BD000094
:103B30002DE9FB4F904684B0D8F80040DFF85CA236
:103B4000054608E00820FFF789FB295D3155641C14
:103B5000A742F7D2039CFFF71FFF07466E1E601EA9
:103B6000082F05EB0409039026D00A2F18BF0D2F4C
:103B700018D01B2F41D0384600F09FFD0128EAD114
:103B800005998C42E7D29DF81800002840F0BB80D0
:103B90003846FFF763FB285D2F55002801D189F8CF
:103BA0000100D3E000F0D4F800212954C8F8000047
:103BB000002007B0BDE8F08F002CCCD09DF8180095
:103BC00058B9032171A0FFF747FB285D002819BFF2
:103BD0002020305500213155BCE700F0B9F80746E8
:103BE0000820FFF73BFBBC4203D2391B4846FFF7D6
:103BF00033FB2020FFF732FBAAE7FFF7CDFE5B285F
:103C0000A9D1002702E00DF807007F1CFFF7C4FED2
:103C1000A0F13001102938BF0A2FF4D3A0F12002FF
:103C2000102A38BF0A2F05D20DF807007F1CFFF7B6
:103C3000B3FEF3E7412804F1010B08D042280AD073
:103C400043280CD0442815D07E2819D083E7C8F823
:103C500000400120ADE7C8F800400220A9E700F0CD
:103C600077F8844205D25C4603210AF10400FFF78D
:103C7000F3FA70E7002CFCD0039C03215046F6E7D2
:103C8000012FF6D19DF80000312806D004D3332847
:103C90000FD00AD334282AD05DE7002CFCD00321B2
:103CA0005046FFF7D9FA641EF7E7C8F80040032032
:103CB0007FE700F04DF80746BC42EDD2391B09F111
:103CC0000100FFF7C9FA022131A0FFF7C5FA09E0A8
:103CD00015F80B0006F80B0003215046FFF7BCFA5D
:103CE0000BF1010BBB45F3D30020F05533E700F097
:103CF0002FF80646B442F9D203210AF10400FFF777
:103D0000ABFA641CF6E700F023F883460598834578
:103D100008BFA0F1010B584602E0315C2954401E57
:103D20008442FAD32F55691C002001F80B005C4532
:103D300004D2ABEB04014846FFF78EFA264603E0B7
:103D40000820FFF78BFA761C5E45F9D3641C02E766
:103D50002846FFF77BBD70B504460D460DA604E06E
:103D600001213046FFF778FA6D1CA542F8D30025F3
:103D700006A604E003213046FFF76EFA6D1CA5424B
:103D8000F8D370BD022104A0FFF766BA082008002E
:103D900020080000200000000D0A00002000002084
:103DA0005FF0040101A0FFF757BA00000D0A3E20A2
:103DB000000000002DE9F04706008C480468FFF77A
:103DC0003BFC0500A6420CD1F06C002806D010F197
:103DD000010F03D016F14C0000F072FCF069844929
:103DE0000860844F3868401E3860B06B012840F08E
:103DF000EF800020B063F16A306AB04215D0726A79
:103E0000426210627C4A52F82130B3426FD142F8CC
:103E100021007A4A1068002869D0012010FA01F1C7
:103E2000106830EA0101116061E00020724A42F836
:103E30002100012313FA01F0DFF8C4C1DCF80020EF
:103E400032EA0000CCF800006C4A1068002805D067
:103E500013FA01F1106830EA010111600021DCF869
:103E60000000002806D1202066490860002066492D
:103E700008603CE00022C3435B1C1840102806D2B7
:103E8000042801D38008921C12EB50022CE0B0F5FC
:103E9000807F08D20009121D042801D38008921CDB
:103EA00012EB500220E0B0F5803F0CD2000A08323D
:103EB000102801D30009121D042801D38008921C88
:103EC00012EB500210E0000C1032B0F5807F01D3ED
:103ED000000A0832102801D30009121D042801D35A
:103EE0008008921C12EB5002511846480160DFF81E
:103EF0001881D8F8000086426AD1424EDFF8F89067
:103F0000306859F82000C8F80000DFF8F0A0DAF8AF
:103F1000000000285CD03868401C38602800FFF79B
:103F20008FFBFFF789FB05003868401E38600020D2
:103F3000DAF800100022CB435B1C1940102906D28E
:103F4000042901D38908921C12EB51022CE0B1F52F
:103F5000807F08D20909121D042901D38908921C07
:103F600012EB510220E0B1F5803F0CD2090A083271
:103F7000102901D30909121D042901D38908921CB3
:103F800012EB510210E0090C1032B1F5807F01D321
:103F9000090A0832102901D30909121D042901D385
:103FA0008908921C12EB51021018316859F8202030
:103FB000D26B91420CD359F82010C8F8001001219F
:103FC00011FA00F0DAF8001031EA0000CAF8000037
:103FD0002800FFF735FB0C480068844204D038689D
:103FE000002801D100F0B8F8BDE8F087D0320020F9
:103FF00028330020EC3200207C300020E432002006
:10400000E0320020E8320020D4320020F8B504006D
:10401000FFF712FB0500606E002804D014F14C007D
:1040200000F08CFB01E00020E064334E3068401E5D
:104030003060A06B00283ED1206B00284DD0606B13
:10404000002833D100202063E16A2C4A52F8210075
:10405000002825D142F8214024626462012212FA2C
:1040600001F0274B1F6838431860264803689942BF
:1040700033D20160244B1868002801D11C602CE069
:10408000C76BB94229D2C16BC76AB94206D0C06AB0
:1040900012FA00F01D490A68104308601C601CE019
:1040A000416A0C6244626162206216E00020606333
:1040B0000320206311E0206B01280ED0206B022822
:1040C0000BD0606B002804D10020A0630020206387
:1040D00003E000206063032020630D48046828008B
:1040E000FFF7AEFA08480068844204D03068002820
:1040F00001D100F031F8F1BDEC3200207C3000201D
:10410000E0320020E8320020D4320020E4320020E7
:10411000D0320020026922F00702A2F144020D4BC6
:1041200013604FF0000353609360D36013615361D9
:104130009361D361136253629362D36213635363D7
:104140004FF0FF339363D1634FF080731364826049
:1041500070470000FDFFFFFF4FF080504FF0E0215F
:10416000C1F8040DEFF30580002804D1EFF31081AE
:1041700062B681F3108870472DE9F24F82B00700D4
:104180000025FFF759FA80460298B968884204D39F
:104190004046FFF755FA0020ADE05848006800900F
:1041A00000983862D7F81490FC68641C002604213B
:1041B0004846FFF77EF9FFF790F9DFF844A1006861
:1041C000504540F08E80002D02D1C7F81490012593
:1041D0004846FFF77EF901900198D0F800B04946B3
:1041E0005846FFF76BF90600083E029886422DD22A
:1041F000002604215846FFF75CF9FFF76EF90068C6
:10420000504565D15846FFF764F900680199086088
:10421000F868401EF8607869584501D1C7F81490D5
:10422000002C00D0641E4046FFF70AFAFFF704FA9C
:104230008046386A0099884205D0D7F81490FC6807
:10424000641C00983862002CB1D1FFE7002E4ED0DC
:104250000298301A14281CD3029908314846FFF7F7
:1042600028F904002000FFF734F906004846FFF75C
:1042700030F905002868306004212000FFF719F9A3
:10428000FFF72BF9C0F800A0F868401CF8602C601C
:10429000029E04214846FFF70CF9FFF71AF90400C3
:1042A0003800FFF719F92060B868861B083EBE6029
:1042B0007869814504D14846FFF70BF900687861B9
:1042C0004046FFF7BDF908214846FFF7F2F812E033
:1042D0005846FFF7FEF8D0F80090002CA0D0641EDE
:1042E0009EE74846FFF7F5F8D0F8009098E740467B
:1042F000FFF7A6F90020BDE8FE8F00BFD0320020F6
:10430000EEEEFFFF2DE9F84305000F009046002474
:10431000002D01D10C242CE0202B01D00C2428E00E
:10432000FFF78AF9224E3168491C3160FFF788F99E
:104330002048D0F80090002002E0D9F81490401CEA
:104340001D490968884201D24D45F6D1FFF774F93D
:104350003168491E3160FFF773F9FFF775F94D4574
:1043600001D10C2405E0154800681549884200D1A8
:104370001324002C11D1DFF84C90D9F80060FFF71E
:10438000B4F80643002E08D0D9F80060FFF7ADF866
:104390000643B6F1F03F00D21324002C05D142466B
:1043A0003900280000F0E2F904002000BDE8F283A3
:1043B000EC3200202C33002030330020D03200209B
:1043C000782E002028000020F8B504461346206B04
:1043D00090F82120012A1FD109B11A0001D1012032
:1043E000F2BD04F138052A78012A15D001222A707D
:1043F0002162A384E38400226A6020266E7027680D
:104400003A1D00F0DFF9002028702068416941F072
:10441000800141610020F2BD0220F2BD7CB504465E
:1044200004F138051346A878202834D109B11800C2
:1044300001D1012076BD287801282CD001202870D8
:10444000A162A38500266E602220A8700A46266815
:10445000606B311D00F0D2F90020009021680A68DD
:10446000009200224B68009300982A70CB6843F4B6
:104470008073CB602068416941F00101416120688F
:10448000C16841F01001C1602068416941F04001FC
:104490004161002076BD022076BD7CB504462168CE
:1044A0000B68CA684D6913F00F0009D1D8064FD5C3
:1044B000D2064DD500F04DF8BDE87640FFF78FBA33
:1044C000E80702D412F4907F42D0D80705D5D6056C
:1044D00003D5E06B40F00100E063580705D5EE0717
:1044E00003D5E06B40F00200E063980705D5EE07C6
:1044F00003D5E06B40F00400E063180707D596068B
:1045000001D4E80703D5E56B45F00805E563E06BEA
:10451000F0B1980609D5950607D5D80605D5D20677
:1045200003D500F016F8FFF75AFAE06B01070FD534
:10453000204600F043F82068416921F040014161C4
:10454000606B00F073FA18B1BDE87340FCF790BAE5
:1045500073BD08680090009A486800900099606BED
:104560007047406A0021C1840068416921F08001E0
:104570004161704710B5446A2068416904F139020D
:104580001378212B09D1090607D50023E384C168DC
:1045900021F0C001C1602020107021684869517865
:1045A000222906D1410604D50022E285204600F0EA
:1045B00005F8E06B40F01000E06310BD0168CA68C8
:1045C00022F49872CA6001684A69520852004A612E
:1045D000202180F83A10704770B504000025002CA7
:1045E00001D10C2514E020680D49884201D00C252A
:1045F0000EE00C480668FEF778FF0643002E01D057
:10460000132505E0084800680849884200D11325B1
:10461000002D03D1200000F06BFA0500280070BDCA
:10462000414D455328000020D0320020782E002034
:10463000F8B504000D000026002C01D10C2616E070
:1046400020680F49884201D00C2610E0002D0ED0C2
:104650000C480768FEF749FF0743002F01D00426E6
:1046600005E0094800680949884200D10426002E67
:1046700004D12900200000F087FA06003000F2BDC6
:10468000414D455328000020D0320020782E0020D4
:1046900080B5002801D10C2007E00168034A91424F
:1046A00001D00C2001E000F0BDFA02BD414D4553A0
:1046B00061381A288041C00F704720385F28F9E719
:1046C000F8B504002168002931D011F1010F2ED076
:1046D000A06900282BD1212901D31F2100E0491E08
:1046E00013480068FEF7F0FE05002800FEF7FBFE09
:1046F0000700104E3068FEF7F6FE874209D3316896
:104700002800FEF7DEFE01000B480068FEF7DCFE25
:1047100005002868002803D1246164612C6005E04D
:10472000286841690C61446120616161A561F1BD46
:104730000833002004330020003300208169002961
:1047400012D00269904205D10A6882420AD1002241
:104750000A6007E0436953611A610B68834201D123
:1047600091610A60002181617047000070B504000A
:104770000D001600202200212000FEF791FE65604A
:10478000A660FEF759FF0C4921600C4B19680029FF
:1047900004D10B490C606461A46106E00849096812
:1047A0008A698C615461A26161611968491C196050
:1047B000FEF746FF002070BD414D455330330020C9
:1047C0002C330020F8B500F035F801D10220F2BDFD
:1047D00000F03DF80DD100F041F82868016821F0A3
:1047E000040101602868026842F00A0200F028F81B
:1047F00002E085F8204002242046F2BDF8B500F022
:1048000019F801D10220F2BD00F021F80DD100F01D
:1048100025F82868016821F006010160286802680F
:1048200042F0080200F00CF802E085F82040022473
:104830002046F2BD0546002495F820000128704767
:1048400002602868016841F001010160704795F835
:1048500021600120012E85F820007047022085F894
:104860002100AC63286807687F087F00076028463E
:104870002CE12DE9F84F00F1380204275168DFF8E8
:1048800030B20B6804688B4925689668DFF828C247
:10489000DFF828E2DFF82882DFF82892DFF828A284
:1048A000B7403B421FD06F071DD5544508BF0422B7
:1048B0003CD04C4508BF402238D0444508BF4FF497
:1048C000806233D0744508BF4FF480422ED06445D7
:1048D00008BF4FF4802229D05C4514BF4FF080629E
:1048E0004FF4800222E00227B7403B4223D0AF07BB
:1048F00021D5544508BF022218D04C4508BF2022BC
:1049000014D0444508BF4FF400720FD0744508BF5F
:104910004FF400520AD0644508BF4FF4003205D06E
:104920005C450CBF4FF400124FF000720A60BDE806
:10493000F24FFFF754B8082101FA06F6334215D0BA
:10494000290713D5236823F00E03236001249168FF
:1049500053688C405C600121116080F821100023B5
:1049600080F82030BDE8F24FFFF704BEBDE8F18FBC
:1049700070B500F1380202265168096803681C68A6
:104980009568AE40314235D0A60733D5196821F07D
:104990000A011960012280F8212001684A4B9942DE
:1049A00008BF02211DD0474A914208BF202118D0DC
:1049B000434A914208BF4FF4007112D03F4A9142DE
:1049C00008BF4FF400510CD03B4A914208BF4FF44E
:1049D000003106D0364A91420CBF4FF400114FF01F
:1049E0000071344A1160002180F82010BDE8704049
:1049F000FFF7B7BD082606FA05F5294215D02107AD
:104A000013D51C6824F00E041C60012391685468BF
:104A10008B40636001211160002380F8211080F831
:104A20002030BDE87040FFF7A5BD70BD10B590F80F
:104A300021200021022A03D004218163012134E0D6
:104A40000268136823F00E03136002681E4B14689B
:104A500064086400146002689A4208BF01221DD0F5
:104A6000184B9A4208BF102218D0154B9A4208BF23
:104A70004FF4807212D0114B9A4208BF4FF480520B
:104A80000CD00D4B9A4208BF4FF4803206D0084B31
:104A90009A420CBF4FF480124FF08072054B1A609F
:104AA000012280F8212080F82010084610BD000067
:104AB0006C000240040002405800024044000240E2
:104AC000300002401C0002400800024070B5046C37
:104AD000C66B0125A54075600468636040681028B6
:104AE00002D1A260E16070BDA160E26070BD000013
:104AF000F8B50500FEF7A0FD002129601F490A68EE
:104B0000521E0A600968002903D100211C4A116065
:104B100008E06969AA698A615161194A1368AB4260
:104B200000D11160174E3168491C3160EF680021D7
:104B3000E9602C6900212961FEF782FD11E0641E05
:104B4000FEF77AFD0021B9660121C7F884103D6F98
:104B50003168491C3160FEF773FD3800FFF756FAE3
:104B60002F00002CEBD1FEF767FD3168491E316044
:104B7000FEF766FDFEF768FD0020F2BD3033002031
:104B80002C330020EC32002070B505000C0000260C
:104B9000FEF752FDA968002905D0A968491EA96041
:104BA000FEF74EFD36E0002C31D01B4A116800297B
:104BB00003D0FEF745FD0D262CE018490E68184974
:104BC000B166F566D6F8B010491CC6F8B010296970
:104BD000002903D1EE603667766705E0E968316742
:104BE0004B6F73671E674E672969491C296106214F
:104BF00031630121B163F4641168491C1160FEF74F
:104C00001FFD3000FFF7D6F8D6F8846002E0FEF70B
:104C100017FD0D26300070BDEC320020D032002090
:104C2000CD50000870B50400FEF706FD01002069B4
:104C300000280CD1A068401CA060E5690800FEF7C0
:104C4000FFFC2800002824D02000A84721E0E568C8
:104C5000401E002802D10022E26004E02A6FE260D8
:104C60006B6F53671A6720610020A866E669002011
:104C7000C5F8840008480268521C02600800FEF76C
:104C8000DFFC2800FFF7C2F93000002801D0200027
:104C9000B047002070BD00BFEC32002053454747AD
:104CA0004552205265616C2D54696D652D546572B5
:104CB0006D696E616C2053616D706C650D0A00004A
:104CC0005072657373203C313E20746F20636F6EA9
:104CD00074696E756520696E20626C6F636B696EB6
:104CE00067206D6F646520284170706C6963617422
:104CF000696F6E207761697473206966206E6563E1
:104D00006573736172792C206E6F20646174612009
:104D10006C6F7374290D0A005072657373203C32F6
:104D20003E20746F20636F6E74696E756520696EC6
:104D3000206E6F6E2D626C6F636B696E67206D6F96
:104D4000646520284170706C69636174696F6E20BE
:104D5000646F6573206E6F7420776169742C2064B2
:104D6000617461206C6F7374206966206669666F78
:104D70002066756C6C290D0A000000007072696E67
:104D8000746620546573743A202525632C202020F6
:104D9000202020202020275327203A2025632E0D75
:104DA0000A0000007072696E746620546573743A6C
:104DB00020252535632C2020202020202020274559
:104DC00027203A202535632E0D0A00007072696E87
:104DD000746620546573743A2025252D35632C2084
:104DE000202020202020274727203A20252D35630A
:104DF0002E0D0A007072696E746620546573743AE1
:104E0000202525352E33632C2020202020202747E5
:104E100027203A20252D35632E0D0A007072696E09
:104E2000746620546573743A2025252E33632C2034
:104E3000202020202020274527203A20252D3563BB
:104E40002E0D0A007072696E746620546573743A90
:104E5000202525632C2020202020202020202752C0
:104E600027203A2025632E0D0A0000007072696E1B
:104E7000746620546573743A202525732C202020F5
:104E80002020202252545422203A2025732E0D0A2D
:104E9000000000007072696E746620546573743A85
:104EA000202525732C20225254545C725C6E526F64
:104EB000636B732E22203A2025732E0D0A0000000A
:104EC0007072696E7466207468726561645F305FC9
:104ED000656E7472793A202C207468726561645F23
:104EE000305F636F756E746572203A2025752E0DE4
:104EF0000A0000002DE9FC410024474988420FD0F8
:104F0000BDE8F381454D032129630121A96344498B
:104F10000A68521C0A60FEF793FB2800FEF74AFF5E
:104F2000FEF7D5FA0128EBD1FEF786FB06003D4DD2
:104F30002868006800900098002802D06846009910
:104F4000886100202968086001212868FEF7BCFA02
:104F50002860286834490968884202D133480068CB
:104F60002860334D002028603000FEF769FBFEF713
:104F700063FB2BE00021B1610AE0B768F468716857
:104F8000316031680029F5D001A9B161366101961F
:104F9000DFF8A080C8F80060FEF752FB3800002858
:104FA00001D02000B847FEF747FB07000020C8F8F3
:104FB00000000198B04204D10020B0613000FFF73A
:104FC0007FFB3800FEF73CFBFEF736FB009900291B
:104FD0001BD0009E00990969002201928E4202D1E5
:104FE0000021009105E072694A6111616A468A6197
:104FF000009131682129C0D3316820393160002700
:1050000001A9B16136610196C2E7296800293FF420
:1050100079AFFEF715FB83E74D495441782E002008
:10502000EC3200200833002004330020003300203D
:105030000C3300201833002070B504000E00FEF77A
:10504000FBFA0500A06E1E49884235D1D4F8B000A5
:10505000864231D1E06EFEF73EFA00282CD001687E
:10506000184A914228D1816A002925D00021A166E1
:10507000816A491E8162816A002902D10021416250
:1050800007E0216F626F4A671167426AA24200D14E
:105090004162206B09280FD11020C4F884000A480F
:1050A0000168491C01602800FEF7CAFA2000FEF7DB
:1050B000ADFFFEF7C1FA05002800FEF7C1FA70BD8A
:1050C0003950000845545942EC32002070B50400B4
:1050D0000E00FEF7B1FA0500A06E1E49884235D1D8
:1050E000D4F8B000864231D1E06EFEF7F9F900281D
:1050F0002CD00168184A914228D10169002925D095
:105100000021A1660169491E01610169002902D1DE
:105110000021C16007E0216F626F4A671167C268B2
:10512000A24200D1C160206B06280FD10D20C4F827
:1051300084000A480168491C01602800FEF780FAD3
:105140002000FEF763FFFEF777FA05002800FEF760
:1051500077FA70BDCD500008414D4553EC32002028
:1051600053685F68656C703A2075736167653A20B3
:1051700053685F68656C700D0A2020202020202075
:1051800020202020202020202053685F68656C703C
:10519000205B636F6D6D616E645D000020202020D8
:1051A000202020202020202020202020476574203F
:1051B0006C697374206F6620636F6D6D616E6473CC
:1051C0002C206F7220696E666F726D6174696F6EEC
:1051D0002061626F7574206120636F6D6D616E6414
:1051E0002E00000038B519480468FEF725FAD4F8F7
:1051F000AC50FEF725FA2800002802D0002120003C
:10520000A847A06C616C884711490868002802D043
:10521000200009688847FEF70FFAD4F8AC50012146
:1052200021630121A1630021E1640A490A68521C3B
:105230000A60FEF705FA2800002802D001212000AC
:10524000A8472000FEF7B6FD31BD00BFD0320020D8
:10525000F0320020EC320020FEE7FEE7FEE7FEE73A
:10526000FEE770477047084800F01AB8704770476B
:105270000648FCF7C0BE0648FCF7BDBE0548FBF774
:10528000B5BA0548FCF721BC88320020802D0020EB
:105290003C2D00207C310020483200207047000067
:1052A00010B5044620680168CA0717D54168CA07C7
:1052B00014D540684107204608D500F010F8216851
:1052C0006FF0040048600422627403E000F008F804
:1052D000012060746FF001012068416010BD7047CB
:1052E0007047000070B5FEF7FDF80400FEF7A4F962
:1052F000216B042909D10B490A68521C0A60FEF788
:105300009FF92000FEF782FE0AE0A56ED4F8B06097
:10531000FEF796F92800002802D031002000A847A7
:1053200070BD00BFEC320020546869732066756E52
:105330006374696F6E206973206578656375746541
:105340006420696E2063617365206F6620657272E8
:105350006F72206F6363757272656E63652E0D0ADE
:105360000000000030B5016884684218416802EB13
:105370005103C90703D54C4401E0491C05D19A42A9
:105380000AD012F9011B12F8015B002904F8015B35
:10539000F3D4491EF7D5F2E70C3030BD10B50749FC
:1053A00079441831064C7C44163404E00A68081D20
:1053B000114488470146A142F8D110BD0800000001
:1053C000240000001BB2FFFF303300002C0000203F
:1053D0000000000091FFFFFF6C0100004200000090
:1053E000000000200448FFF7C3BA0448FFF741BAA1
:1053F0000348FFF752B80000B42C0020F82C00201E
:105400000832002000F00DF8002801D0FFF7C6FF99
:10541000AFF300800020AFF30080FBF7C7FA00F085
:1054200002F80120704700F001B800000746384636
:1054300000F002F8FBE7000080B5AFF30080024AFD
:1054400011001820ABBEFBE72600020053797374ED
:10545000656D2054696D65722054687265616400E1
:10546000704700000000000000000000010203047B
:10547000060708093031323334353637383941427E
:1054800043444546014880470148004761540008AD
:10549000A15400085465726D696E616C00000000D3
:1054A000AFF30080AFF30080FFF7ACFF73685F6875
:1054B000656C70000000000001020304534547477B
:1054C00045520000FFF7FEBFFFF7FEBFFFF7FEBF2C
:1054D000FFF7FEBFFFF7FEBFFFF7FEBFFFF7FEBF00
:1054E000FFF7FEBFFFF7FEBFFFF7FEBFFFF7FEBFF0
:1054F000FFF7FEBFFFF7FEBFFFF7FEBFFFF7FEBFE0
:10550000FFF7FEBFFFF7FEBFFFF7FEBFFFF7FEBFCF
:10551000FFF7FEBFFFF7FEBFFFF7FEBFFFF7FEBFBF
:10552000FFF7FEBFFFF7FEBFFFF7FEBFFFF7FEBFAF
:10553000FFF7FEBFFFF7FEBFFFF7FEBFFFF7FEBF9F
:10554000FFF7FEBF07AC54000811300008F8000058
:1055500001F9000010FC000A24F4001B5B44001B4E
:055560005B4300FCF0BC
:04000005080054A1FA
:00000001FF
