:020000040800F2
:100000000837002071570008195500081B550008D3
:100010001D5500081F55000821550008000000006C
:100020000000000000000000000000002355000850
:10003000255500080000000071230008A7210008D2
:10004000B1570008B5570008B957000827550008F0
:10005000BD570008C1570008C5570008C957000818
:10006000CD570008D1570008D5570008D9570008C8
:100070002D5500082F550008D1560008D756000806
:100080003155000837550008DD570008E1570008D2
:10009000E5570008E9570008ED570008F157000838
:1000A000F5570008F9570008FD57000801580008E7
:1000B00005580008095800083D5500080D5800086B
:1000C0001158000815580008195800081D58000854
:1000D00021580008DD560008435500085D5500080A
:1000E00025580008295800082D5800082DE9F84324
:1000F000040016D02078DFF8A464C10713D5706817
:1001000000F00C00042807D0706800F00C000828EC
:1001100041D17068C1033ED53068810303D5606862
:10012000002800F064812078DFF88074810719D5F9
:10013000706810F00C0F07D0706800F00C000828F1
:1001400061D17068C1035ED43068810703D520692E
:10015000012840F04C813168606921F0F80141EAE2
:10016000C00131602178080740F18180A069DFF883
:100170004014002800F0A68001220A6000F04CFA2A
:100180000546706A810763D400F046FA401B0228D6
:10019000F7D903202EE16068B0F5803F04D13068C4
:1001A00040F48030306014E008B930680AE0B0F5FF
:1001B000A02F306806D140F480203060316841F4CF
:1001C000803105E020F480303060316821F48021F6
:1001D0003160606858B100F01FFA0546306881034D
:1001E000A1D400F019FA401B6528F7D3D1E700F03D
:1001F00013FA05463068810395D500F00DFA401BCF
:100200006528F7D3C5E72069A8B10121396000F05E
:1002100003FA05463068810705D400F0FDF9401B5C
:100220000228F7D9B5E73068616920F0F80040EAA4
:10023000C100306096E7386000F0EEF9054631689D
:1002400088078FD500F0E8F9401B0228F7D9A0E70E
:10025000DFF84C030168C9084FF47A72B1FBF2F27F
:10026000009200BF0098411E00280091F9D120782B
:1002700041076ED5F0690025C10009D4F06940F04E
:100280008050F0610125F06900F0805000900098E6
:10029000DFF82083D8F80000C10520D4D8F800008A
:1002A00040F48070C8F8000000F0B6F98146D8F834
:1002B0000000C10513D400F0AFF9A0EB09006528D8
:1002C000F5D366E7086000F0A7F90546706A810774
:1002D000CDD500F0A1F9401B0228F7D959E7E06815
:1002E000012808D008B9306A09E00528306A06D12B
:1002F00040F004003062306A40F0010005E0400840
:1003000040003062306A20F00400306241F28938E7
:10031000E06860B100F080F98146306A810713D44B
:1003200000F07AF9A0EB09004045F6D331E700F080
:1003300073F98146306A810706D500F06DF9A0EBAC
:1003400009004045F6D324E71DB1F06920F0805044
:10035000F061E06900284CD0716801F00C010829B7
:1003600038D002282AD100F047F8054630688101CC
:1003700005D500F051F9401B0228F7D909E7206A9A
:10038000B0F5803F05D17168A06821F400310143C8
:1003900071607268206A616A22F4741202430A432F
:1003A0007260012000F029F804463068810120D4F1
:1003B00000F032F9001B0228F7D9EAE600F01CF839
:1003C00004463068810114D500F026F9001B02288C
:1003D000F7D9DEE601280AD07068226A00F480317D
:1003E000914202BF00F47010616A884201D001207E
:1003F00000E00020BDE8F2830020386600F00CB970
:100400002DE9F041040088464ED06B4E00F077F89D
:1004100002D200F06FF847D12068604D810712D5F5
:10042000400703D5696841F4E061696020780107FD
:1004300003D5686840F4605068606968A06821F07E
:10044000F001014369602178C80725D5606801285B
:1004500002D129688A0303E00228296802D18A01AF
:1004600002D421E08A071FD56968890840EA810023
:10047000686000F0D1F807466868616800F00C0019
:10048000B0EB810F08D000F0C7F8C01B41F28931F2
:100490008842F1D303202BE0306800F0070080454C
:1004A00004D200F027F801D0012021E02078410794
:1004B00005D56A68E06822F4E06202436A60217848
:1004C000080706D56968206921F4605141EAC00136
:1004D000696000F019F86A683849314BC2F30312B9
:1004E000895CC84018603048006800F09BF8002024
:1004F000BDE8F0813168C90848EAC101316030685F
:1005000000F00700404570472D4926480A6802F070
:100510000C03082B00D0704710B500BF2BA4C2F30A
:100520008343D203E35C08D5096858432BA3C1F386
:1005300040415A5CB0FBF2F010BD184621494843D7
:1005400010BD17481E4A006813681F49C3F30222F2
:1005500006E013481A4A006813681B49C3F3C22215
:10056000895CC840704710B50F220260144A1368B6
:1005700003F003034360146804F0F004846013681C
:1005800003F4E063C3601268D20802F4E06202611F
:100590000948026802F007020A6010BD001002401C
:1005A0002400002000127A002000002000004242B7
:1005B0008004424200700040002002405057000872
:1005C0000410024000093D00A05700080203040582
:1005D000060708090A0B0C0D0E0F1010010230B4AB
:1005E000002513E050F8042BD30744BFA9F1010301
:1005F0009A18091F042942F8045BFAD213468C07A3
:1006000044BF15809B1CC90748BF1D7050F8041BD0
:100610000029E7D130BC704701484068704700BFEF
:100620001800002018B5014687B000221E2000F0F7
:100630004FF81E2000F069F81448154C016841F08D
:100640000401016001A9006800F004000090009816
:1006500002A8FFF788FFFFF774FF0E49216040F200
:10066000E73240000C49E260B0FBF1F0401E6060F0
:1006700000222261A260204600F05CF818B92046F2
:1006800000F065F800E0012008B010BD1C10024029
:10069000243100200008004040420F000901020000
:1006A00002D41F48815470471E4B02F00F021A44B7
:1006B00002F8041C70471C4B19684FF6FF02000239
:1006C000114000F4E060084318490843186070477F
:1006D00070B5154B1C68C4F302230124C3F1070550
:1006E000052D2EBF0F2504FA05F56D1E1E1D072EC4
:1006F00034BF0023DB1E2940994004FA03F3BDE810
:1007000070405B1E1A401143C8E7010007D4012264
:1007100000F01F01064B8A40400943F82020704733
:1007200000E400E018ED00E00CED00E00000FA0548
:1007300000E100E038B5040001D1012032BD00F035
:100740004BF818B900F044F800F02CF92DE090F8BF
:100750003D10012901D001207047022180F83D1091
:100760000168CA6842F00102CA600068DFF87010D0
:10077000884218BFB0F1804F07D0DFF86810884278
:100780001CBFDFF86420904209D1816801F00701A5
:10079000062908D0016841F00101016003E0026808
:1007A00042F0010202600020704702206870211DA3
:1007B000206800F0BFF80120A872A870E8702871C6
:1007C0006871A871E871287268726870002032BD83
:1007D000002129702046704704F13C056878704775
:1007E000002C0140000400400008004010B5044601
:1007F000206801698A0715D5C1688A0712D56FF08C
:100800000201016101222277806910F0030F204666
:1008100002D000F0C8F803E000F0C6F800F087F856
:1008200000202077206801694A0715D5C1684A076A
:1008300012D56FF00401016102222277806910F461
:10084000407F204602D000F0AEF803E000F0ACF8A4
:1008500000F06DF800202077206801690A0715D59F
:10086000C1680A0712D56FF00801016104222277DE
:10087000C06910F0030F204602D000F094F803E0A6
:1008800000F092F800F053F800202077206801690A
:10089000CA0615D5C168CA0612D56FF010010161EC
:1008A00008222277C06910F4407F204602D000F071
:1008B0007AF803E000F078F800F039F800202077AB
:1008C00020680169CA0708D5C168CA0705D56FF055
:1008D00001010161204600F0C4F8206801690A06A0
:1008E00008D5C1680A0605D56FF080010161204670
:1008F00000F0CAF8206801694A0608D5C1684A06AE
:1009000005D56FF040010161204600F0BEF8206877
:1009100001698A060AD5C1688A0607D56FF02001E9
:1009200001612046BDE8104000F0B0B810BD20467F
:1009300000F0ADB870B5174E0368174C174DB042B4
:1009400018BFB0F1804F03D0A84218BFA04209D110
:100950004A6823F070031343B0421CBFB0F1804FCC
:10096000A84201D0A04203D1CA6823F440731343C4
:100970004A6923F0800313430360B0428B68C3626B
:100980000A68826202D10969054A11600123436144
:1009900070BD0000002C0140000800400004004031
:1009A000302C0140704770477047000080B500F060
:1009B0006FF800F011F800F07DF800F0F3F800F0A7
:1009C00047F900F0BBF900F0C1F900F063FB00F05B
:1009D000D7F900F083FBFEE718B593B0282109A8EA
:1009E00000F0A0FB1421684600F09CFB05A9002044
:1009F00000220023002481E81D0005224FF48031ED
:100A0000012309920A910C930D9311914FF4003236
:100A100002234FF460110B921093129109A8FFF773
:100A200065FB08B100F024F8022101910F204FF47A
:100A30008061009003910294049402216846FFF7BC
:100A4000DFFC08B100F014F801214FF48072059129
:100A5000069205A800F06AFB08B100F009F814B08E
:100A600010BD00680649884208BF00F039BC7047D5
:100A700080B50449002000F02FFE72B6FEE70000AA
:100A800000080040E85500087047704770477047FD
:100A900080B50748016841F0100101600320FFF7AD
:100AA0000AFE0020FFF7BEFD00F020FE002002BD80
:100AB0000020024000B585B010220021684600F0F9
:100AC00037FE2148016841F010010160026802F020
:100AD000100204920499026842F020020260036846
:100AE00003F0200304930499026842F004020260B8
:100AF000036803F00403049303230499026842F09B
:100B0000080202604FF40052006800F008000490F0
:100B100004990092019369460C4800F013FE49F6CF
:100B2000F3110091032201926946094800F00AFE80
:100B30004FF2FF310091032201926946054800F00F
:100B400001FE05B000BD00BF1810024000100140BA
:100B500000080140000C01400901020002D437489E
:100B600081547047364B02F00F021A4402F8041CFD
:100B7000704730B500F007000123C0F10704052CD1
:100B80002EBF0F2403FA04F4641E051D072D34BF85
:100B90000020C01E2140814003FA00F0401E10409A
:100BA000084330BD38B52748274C0168274D41F030
:100BB000010101600022006800F0010000900021A6
:100BC00000982068C0F30220FFF7D3FF01460C20F5
:100BD000FFF7C2FF4FF480502860002220680021F8
:100BE000C0F30220FFF7C5FF01460D20FFF7B4FF59
:100BF0004FF400502860002200210E20FFF768FD0E
:100C00000E20FFF782FD002200210F20FFF760FD7C
:100C10000F20FFF77AFD002200211020FFF758FD7A
:100C20001020FFF772FD002200211120FFF750FD78
:100C3000BDE832401120FFF768BD000000E400E08D
:100C400018ED00E0141002400CED00E000E100E0BF
:100C500080B5184818494FF0FF324FF48073016097
:100C60004260836000F048FE18B1BDE80140FFF724
:100C7000FFBE01BD00681049884200D0704780B5B2
:100C800000F0DAFE0D480E4A016841F00061016093
:100C90000121006800F000600090009811600022BF
:100CA00000210320FFF714FDBDE802400320FFF7F9
:100CB0002CBD000030320020002800401C100240F3
:100CC0003C04424230B50FF2C434214411F8013CD7
:100CD000DFF87413181805680D402A43026030BD10
:100CE00010B500F017F824F0200404E010B500F06F
:100CF00011F824F040042243026010BD10B500F04A
:100D000009F824F08004F6E710B500F003F824F4A5
:100D10004074F0E70FF274330B4413F8011C081809
:100D20000468704710B5FFF7F5FF24F44064E2E76C
:100D300010B5FFF7EFFF24F44054DCE780B5C3485B
:100D4000C34900F00BF800B116E001BD80B5C14801
:100D5000C14900F003F800B10EE001BD01604FF49D
:100D6000E13200230C2142608360C3600361416172
:100D70008361C36100F068BEBDE80140FFF778BE43
:100D800018B58DB01C22002106A800F0D1FC142259
:100D9000002101A800F0CCFCB048B14C416841F4FE
:100DA000802141600923416801F48021009100996C
:100DB000026842F0080202600068AA4A00F00800D7
:100DC0000090204600990192032103910022029392
:100DD000049201A900F0B8FFA349019104220292F4
:100DE00001A9204600F0B0FFA04C102202212046AD
:100DF000FFF768FF4FF4805202212046FFF798FF6B
:100E000000F056F8FFF76CFF00F052F8FFF76EFFA6
:100E1000802202212046FFF771FF00F049F8FFF71A
:100E200073FF00F045F8FFF77DFF00F045F8FFF78E
:100E300049FF00F041F8FFF77BFF00F03DF8FFF7B6
:100E40004FFF00F039F8FFF751FF802203212046C1
:100E5000FFF754FF00F030F8FFF756FF00F02CF8D2
:100E6000FFF760FF8248834B01688349834C00226F
:100E70001A70802008600C214FF4E13200230A919F
:100E800006920793089309930B930C9306A92046A7
:100E900000F0CEFF206920F490402061606920F0CE
:100EA0002A006061E06840F40050E0600EB010BDC0
:100EB000002202212046704700220321204670476D
:100EC0002DE9F84185B0044610220021684600F063
:100ED0002FFC21685E4A6A4EDFF8A8816A4F5F489E
:100EE00091424FF4805545D1016841F48041016041
:100EF000026802F48042049200F08AF84FF4007114
:100F000000F08CF84FF4806000F096F810207060CC
:100F100000218020F060B16031617161B161C6F87B
:100F20000080F561304600F0D9FF08B1FFF7A0FD61
:100F300008F11400002126637064B1640020F0649D
:100F40007065B06580212020F0653165746235667A
:100F500006F1440000F0C2FF08B1FFF789FD06F179
:100F600044006063B466002200212520FFF7B0FB37
:100F7000252048E0384A914247D1416841F4003188
:100F80004160416801F40031049100F041F804210E
:100F900000F044F8082000F04FF806F1880708F147
:100FA0003C003860102179600022BA608020F8602F
:100FB0003A617A61BA61FD61384600F08FFF08B18D
:100FC000FFF756FD27637C6208F128007864002152
:100FD000B9640020F8648021396578650021B9651D
:100FE0002020F865396606F1CC05284600F076FF2A
:100FF00008B1FFF73DFD6563BC6600220021262095
:10100000FFF766FB2620FFF780FB06B0BDE8F08106
:101010000499026842F0040202607047006800F020
:10102000040004900222049800910192032103918C
:101030003846694600F086BB00210090019102917C
:101040003846694600F07EBBEFBFFFFFB03100209D
:1010500000380140F03100200044004018100240E8
:10106000000C0140040004040800080400000240D1
:101070000CED00E027E400E004E100E0004800405F
:10108000B42C00204400024000080140081C3044F9
:10109000586C800080B50E480E49016001F050F890
:1010A00018B1BDE80140FFF7E3BC01BD81B00068A5
:1010B0000849884209D10848026842F040020260AB
:1010C000006800F040000090009801B070470000F8
:1010D00064320020003002401410024010B50E4C63
:1010E000206810F10F3F0AD05FF0F030206001F06F
:1010F00037F801F06FF809480168491C01605FF09A
:10110000F03020600648006801F076F8002020608A
:1011100001F01EF910BD00BF28000020943200200D
:1011200070320020002201F069B900002DE9FC4175
:101130000646604D3078C10750D5A8690024C1002B
:1011400009D4A86940F08050A8610124A86900F082
:10115000805000900098584F3868C10511D4386805
:1011600040F480703860FFF757FA80463868C10550
:1011700007D4FFF751FAA0EB08006528F6D3032047
:101180003FE0E86910F440701EBF716801F44071DF
:10119000884218D04949E86901220A60002320F4F6
:1011A00040700B60E861C0070DD5FFF735FA0746C0
:1011B000E869810707D4FFF72FFAC01B41F2893194
:1011C0008842F5D3DBE7EA69706822F44072024393
:1011D000EA611CB1A86920F08050A86130788107CD
:1011E00005D52A68B06822F4404202432A6031786B
:1011F000C80605D52968F06821F4800101432960FB
:101200000020BDE8F681000010B5002101282C4C1B
:1012100025D0022843D010284AD160682268D30123
:1012200046D500BF29A1C0F38342C003895C0CD519
:10123000606800BF29A3234AC0F34040185CB2FB9A
:10124000F0F308461946414301E01F4A51436068E4
:1012500042022DD449000320B1FBF0F128E0206ABE
:1012600040F202320240B2F5817F08BF4FF40041E4
:101270001ED000F44072B2F5007F05D1626A930778
:1012800048BF49F6404113D400F44070B0F5407FA8
:101290000ED1206882030BD54FF2244108E0FFF7FE
:1012A00058F96168C1F38131491C4900B0FBF1F183
:1012B000084610BD04100240007000404004424245
:1012C0000010024000127A0000093D0002030405EC
:1012D000060708090A0B0C0D0E0F10100102000082
:1012E00002494A68087882184A607047180000204E
:1012F00010B50400A0686268431C9A4206D32268B5
:101300001154401CA060E068401CE060A068616867
:1013100088420DD1A2682168206901F0C6F9A16850
:10132000884203D05FF0FF30E06001E00020A06061
:1013300010BD2DE9F84F0F0090461E003900012521
:101340005FF0010903E0B1FBF8F119F10109414532
:10135000F9D2B14500D2B146DDF82CA000900A9C2C
:101360005FEACA7019D4002C17D05FEA8A7004D5DE
:10137000002E02D15FF0300B01E05FF0200B002C5B
:101380000BD0A14509D2641E5946C9B20098FFF797
:10139000AFFF0098C0680028F1D50098C068002809
:1013A0002DD402E0761E08FB05F5022EFAD2B7FB1B
:1013B000F5F04045F7D2B7FBF5F005FB1077114982
:1013C000095C0098FFF794FF0098C068002804D4D7
:1013D000B5FBF8F5002DEED1FFE75FEACA700ED538
:1013E000002C0CD0002C0AD0A14508D2641E20216C
:1013F0000098FFF77DFF0098C0680028F2D5BDE88F
:10140000F18F0000605700082DE9FC4706000F002F
:1014100091461D00002F01D5784200E038005FF0B2
:10142000010803E090FBF9F018F101084845F9DAEA
:10143000A84500D2A8460A9CDDF82CA0002C05D0B7
:10144000002F02D45FEA4A7000D5641E5FEA8A70FA
:1014500001D5002D10D05FEACA700DD4002C0BD03E
:10146000002C09D0A04507D2641E20213000FFF7D0
:101470003FFFF0680028F3D5F068002831D4002F32
:1014800005D57F422D213000FFF732FF06E05FEAED
:101490004A7003D52B213000FFF72AFFF06800289F
:1014A0001FD41AF0030002280FD1002D0DD1002CFB
:1014B0000BD0002C09D0A04507D2641E302130008B
:1014C000FFF716FFF0680028F3D5F068002808D46D
:1014D000CDF804A000942B004A4639003000FFF7F5
:1014E00028FFBDE8F387F0B597B004000E001500A3
:1014F00007A802904020039000200490069400204A
:1015000005903178761C0800C0B2002815D008007C
:10151000C0B2252840F0C680002201203178C9B22F
:10152000232913D02B290DD02D2902D0302905D005
:1015300010E052F00102761C0DE0BBE052F0020216
:10154000761C08E052F00402761C04E052F0080217
:10155000761C00E000200028E0D1002006E0761C88
:101560000A23C9B203FB00113039080031780B009F
:10157000DBB2303B0A2BF2D300233178C9B22E29DB
:101580000ED1761C06E0761C0A27C9B207FB0311B0
:1015900030390B0031780F00FFB2303F0A2FF2D301
:1015A000317801E0761C31780F00FFB26C2FF9D052
:1015B0000F00FFB2682FF5D0C9B225296BD058298A
:1015C00034D063290AD0642914D0702952D07329E9
:1015D0003AD075291CD0782928D061E02868286085
:1015E000286801682868001D2860C9B202A8FFF7B2
:1015F0007FFE55E029682960296809682F683F1D2A
:101600002F60019200900A2202A8FFF7FDFE47E03A
:1016100029682960296809682F683F1D2F60019299
:1016200000900A2202A8FFF784FE39E029682960A9
:10163000296809682F683F1D2F60019200901022D1
:1016400002A8FFF776FE2BE0286828602868076864
:101650002868001D286039787F1C0800C0B2002867
:1016600007D0C9B202A8FFF743FE05980028F2D5BB
:10167000FFE715E028682860286801682868001DD1
:10168000286000200190082000900823102202A862
:10169000FFF74FFE04E0252102A8FFF729FEFFE730
:1016A000761C03E0C9B202A8FFF722FE05980028C5
:1016B0007FF527AF059801280BDB0498002804D09C
:1016C000049A07A9200000F0F0FF0599049841183A
:1016D0000591059817B0F0BD0CB480B502AA009230
:1016E0006A46FFF700FF02BC5DF80CFB0E4881B0B4
:1016F000016841F001010160026802F001020092FC
:101700000099426842F080524260406800F0805088
:10171000009000980548016821F0E06141F00071F7
:10172000016001B0704700BF181002400400014082
:1017300010B5044610460A460146204601F042F81C
:10174000204610BD2DE9F8474FF0000E00245D4AF9
:101750005D4BDFF878814FF00F0982460CE0D768C7
:101760003840D06006E095604D68AD02F7D5D0688E
:101770000743D7600EF1010E0F6837FA0EF000F044
:101780009F80012000FA0EF63740B742F2D1486838
:1017900038B301281AD002281DD003282ED01128D2
:1017A00016D012281AD04A4DA8421CBF494DA84253
:1017B00017D0494DA8421CBF484DA84211D0484DF2
:1017C000A8421CBF474DA8420BD018E0CC6816E0D9
:1017D000CC68241D13E0CC68083410E0CC680C34CD
:1017E0000DE0886808B9042409E0012819BF08241D
:1017F000CAF814600824CAF8106000E00024B7F5A5
:10180000807F03D250464FEA8E0C05E0AEF108050A
:101810000AF104004FEA850C056809FA0CF6B54395
:1018200004FA0CF6354305604868C000A2D5D8F824
:10183000000040F00100C8F80000D8F8005005F0A2
:10184000010500954FEA8E0500984FEA9E0053F877
:10185000206005F00C0C09FA0CF526EA0505224E6D
:10186000B24508BF00260ED0204EB24508BF012663
:1018700009D01F4EB24508BF022604D01D4EB24506
:101880000CBF0326042606FA0CF6354343F8205015
:10189000F8434D68ED0315684CBF3D4305401560A6
:1018A0004D68AD0355684CBF3D43054055604D68DC
:1018B0009668ED024CBF47EA060500EA060552E7C6
:1018C000BDE8F18700040140080001401810024003
:1018D0000000111000001210000021100000221062
:1018E000000031100000321000080140000C0140DF
:1018F000001001400014014010B504003FD0607C8E
:1019000020B9002121742046FFF7B4F90220607449
:10191000204600F03FF880BB204600F05AF860BB3C
:1019200020684168C908C9004160A068DFF86010FC
:1019300018B148684008400048600A68A06822F46E
:10194000607202430A60606810F1010F04D1012047
:10195000FFF75AFC88B1401E21688A6812091201FB
:1019600042EA10428A6080B22168CA68120C40EADA
:101970000240C86000F02BF818B104206074012008
:1019800010BD0121E0736173A1736174002010BD6B
:101990002C6C004038B5040001D1012032BD00F0AC
:1019A00010F8FEF739FE054620684168080706D49E
:1019B000FEF732FE00F023F8F6D3032032BD0020FC
:1019C00032BD2068416821F008014160704720461F
:1019D0001AE038B50446FEF71FFE05462068416848
:1019E0008A0606D4FEF718FE00F009F8F6D30320A5
:1019F00032BD416841F010014160002032BD401B02
:101A000040F2E9318842704738B5044620684168A1
:101A100021F010014160FEF7FFFD05462068416896
:101A2000880606D4FEF7F8FDFFF7E9FFF6D303209A
:101A300032BD002032BD00000249FFE701200860EE
:101A40007047000020000E4238B5040001D101208B
:101A500032BD00F021F808B900F022F800F012F8C9
:101A600000F023F8FFE7416100F001F832BD206883
:101A7000C16841F40051C160002068602021697094
:101A8000A9707047242068702068C16821F4005153
:101A9000C160204600F018B904F138056878704735
:101AA000002129702046FFF70BBA2068016921F454
:101AB000904101612068416921F02A017047416924
:101AC00021F040014161606B704738B504462568DC
:101AD0002968EA686B6911F00F0007D188065FD5A5
:101AE00093065DD52046BDE83240ABE0D80702D46E
:101AF00012F4907F54D0C80705D5D50503D5E06B07
:101B000040F00100E063480705D5DD0703D5E06B31
:101B100040F00200E063880705D5DD0703D5E06BE0
:101B200040F00400E063080707D5950601D4D80704
:101B300003D5E36B43F00803E363E06B00286CD04C
:101B4000880604D5910644BF204600F07BF8206843
:101B50004069E16B0A0701D440061BD5204600F01E
:101B60005DF8206841694A060FD5FFF7A8FF60B10C
:101B70000FF2C5014163606B00F0DDF900284CD025
:101B8000606B416BBDE8344008472046BDE83240F9
:101B900000F04BBE204600F048FE0020E06331BD5F
:101BA00008062AD5130628D594F83900212834D1FF
:101BB000A068B0F5805F04BF2069002808D1206AC2
:101BC0000188C1F308016960206A811C216204E078
:101BD000206A411C216200786860E08C401EE0842D
:101BE00080B2D0B92068C16821F08001C16020684E
:101BF000C16841F04001C16031BD48060DD55106B4
:101C00000BD5E86820F04000E860202184F8391006
:101C10002046BDE8324000F009BE31BD0168CA6807
:101C200022F49072CA6001684A69520852004A61FF
:101C3000202180F83A107047406A0021C185C18494
:101C400000F0F3BD80B590F83A1022293AD18168AE
:101C5000826AB1F5805F0AD1016969B90368596880
:101C6000C1F308011180826A911C81620FE0002992
:101C700004BF0169002902D10368596803E00168C3
:101C8000496801F07F011170816A4A1C8262C18D2E
:101C9000491EC18589B299B90168CA6822F020023B
:101CA000CA600168CA6822F48072CA6001684A6921
:101CB000520852004A61202180F83A1000F0B7FD26
:101CC000002002BD022002BD10B504462268116941
:101CD000E06821F4405101431161D3681849A068BC
:101CE0000B402169034360690B430343D36051698F
:101CF000A06921F440710143516112498A4202D125
:101D0000FEF727FC01E0FEF71CFC6268192148433E
:101D10009200B0FBF2F16423B1FBF3F203FB12116A
:101D200009013231B1FBF3F000F0F00101EB0211D7
:101D3000226800F00F004018906010BD0000000005
:101D4000F3E9FFFF003801402DE9F0410B681B0269
:101D500002461B0C93FAA3F0B0FA80F85BE04FF058
:101D60000115A8F1080005FA00F040F0806008E0D5
:101D7000C0074ED5B8F1080FF1D240F2011000FAB9
:101D800008F00D69D668070ABE4397FAA7F7B7FAB5
:101D900087F74FF00F0EBD4090FAA0F7B7FA87F71C
:101DA000BF000EFA07F73543D56002EB10652C68CB
:101DB0004E6824EA070C90FAA0F700F031F84E685C
:101DC000012E18BF092E24D190FAA0F7B7FA87F791
:101DD0002C684FF0030EBF000EFA07F724EA070C39
:101DE00090FAA0F78E6800F01BF890FAA0F7B7FA07
:101DF00087F790FAA0F0CE682C684FF0040EBF0071
:101E0000B0FA80F00EFA07F78000BC438640264304
:101E10002E6008F1010833FA08F0A9D1BDE8F0817D
:101E2000B7FA87F7BC00A64046EA0C062E6070475A
:101E30007FB504460E46E0680125810441D4E2687E
:101E4000254970680A40F168024330690A43024339
:101E5000E2602169B06821F4405101432161616968
:101E6000706921F4407101436161684600F0E0FC53
:101E700016498C4208BF039906D0154884421CBFFE
:101E800014498C421DD1029900291CBF30680028DA
:101E900017D0192251438000B1FBF0F16423B1FB4C
:101EA000F3F203FB121109013231B1FBF3F000F040
:101EB000F00101EB021100F00F00401880B2002584
:101EC000A060284604B070BD00000000003801404A
:101ED0000044004000480040F3E9FFFF30B508B976
:101EE000012030BD0468DFF834120919142200F112
:101EF0003803B1FBF2F292009A600222DFF820125E
:101F0000596080F821202568416882686FF30D15BB
:101F10000D43C168154302690D4341691543826948
:101F20000D43C16915430D43256000241C6000F07A
:101F30004CF8002030BD38B590F821200024022A4A
:101F400000F1340103D00420486001243BE0026822
:101F5000136823F00E0313600268DFF8C8311568B8
:101F60006D086D00156002689A4208BF012222D0F8
:101F7000DFF8B4319A4208BF10221CD0DFF8AC3130
:101F80009A4208BF4FF4807215D0DFF8A4319A420C
:101F900008BF4FF480520ED0DFF898319A4208BF44
:101FA0004FF4803207D0DFF890319A420CBF4FF4E3
:101FB00080124FF08072DFF884311A6000F005F86B
:101FC000096801B18847204632BD012280F82120EE
:101FD00080F8204070472DE9F84F00F128020427CF
:101FE0005169554BD1F800E0056854492E68D2F884
:101FF00018A0504CDFF83881DFF83091DFF828B1B5
:10200000DFF820C107FA0AF71EEA070F2DD077077D
:102010002BD52E68B60603D42E6826F004062E6053
:102020000568654508BF042318D05D4508BF4023F7
:1020300014D04D4508BF4FF480630FD0454508BF0D
:102040004FF480430AD0A54208BF4FF4802305D047
:102050009D420CBF4FF480034FF080630B605168CA
:10206000002958D0BDE8F44F0847022707FA0AF7BD
:102070001EEA070F32D0B70730D52E68B60606D451
:102080002E6826F00A062E60012580F8215005688A
:10209000654508BF022318D05D4508BF202314D032
:1020A0004D4508BF4FF400730FD0454508BF4FF4AE
:1020B00000530AD0A54208BF4FF4003305D09D421B
:1020C0000CBF4FF400134FF000730B60002180F839
:1020D00020101168F9B1BDE8F44F0847082101FA52
:1020E0000AF11EEA010F16D0310714D52B6823F030
:1020F0000E032B600124916953698C405C600121BF
:10210000116180F82110002180F82010916811B130
:10211000BDE8F44F0847BDE8F18F0000F8FFFDBFB0
:1021200000000240080002401C0002403000024053
:1021300044000240580002406C000240040002408B
:1021400010B5040001D1012010BD607920B9002133
:1021500021712046FEF7AAFF01206071002010BD0A
:1021600072B61448144A10601448016841F0010125
:1021700001604FF0E0201249C0F8081D11481049D5
:10218000096801604FF0E0200F4941614FF00701FD
:1021900001610021C0F8181D0C49C0F81C1D0C4934
:1021A000C0F8201D704701B500F092FBBDE801406A
:1021B000704700005432002070320020001000E010
:1021C0000000000874320020FFF90000000000FF4A
:1021D0000000FF4080B500F0EFFB00F02FFC00F0A6
:1021E000A3FC00F0ADFC00F0B7FC00F0C1FC00F077
:1021F000CBFC00F0D5FC01BD70B588B00020079085
:102200003426454C49A1009604F1B40542F2A033AE
:1022100004F1E802284600F0CFFC08B1FEF728FCE4
:1022200000234FF4806207A9284600F031FD08B171
:10223000FEF71EFC002201210492059103910291F8
:10224000B420079A06904FF4806101910092002318
:102250000FF2150238A1204600F07AFD08B1FEF712
:1022600007FC08B070BD000070B52C4D2946002059
:1022700000F033FA05F12401002000F02EFA05F1F8
:102280007C01002000F029FA0220009000230022A7
:102290000021002000F04EFA532205F1E00100F089
:1022A00041F8452205F5847100F03CF8472205F518
:1022B000987100F037F8472205F5AC7100F032F85C
:1022C000452205F5C07100F02DF8522205F5D471B4
:1022D00000F028F80FA205F5E87100F023F800BF20
:1022E00018A205F5FC7100F01DF800F0E5FD00F006
:1022F000F1FE00F08BFF0A4E3268521C326005F589
:10230000097100F00FF841F2883001F027F8002C35
:10231000F2D061BD525454002C0000205C4F0008E4
:102320006C3200200020FFF7D7B900006279746595
:1023300020706F6F6C2030007468726561642030AB
:10234000000000005254540D0A526F636B732E004C
:102350004FF00000284A106062B64FF080504FF0F6
:10236000E021C1F8040DBFF34F8FBFF36F8FFEE77D
:1023700043F27820C2F2000043F27C22C2F2000253
:102380004FF00003016881B10360EFF3098C2CE981
:10239000F00F43F2D024C2F200044CF804ED25689B
:1023A000C1F808C00DB18D61236072B61168A1B18A
:1023B000016062B64F6843F2D024C2F200048D6916
:1023C00007F101074F602560D1F808C05CF804EB05
:1023D000BCE8F00F8CF30988704772B61168016091
:1023E00009B962B6F9E74FF000674FF0E028C8F886
:1023F000047D62B6DEE700009432002000B500BF25
:10240000130096469446103928BFA0E80C50FAD81D
:102410005FEA417C28BF0CC048BF40F8042BC907C5
:1024200028BF20F8022B48BF00F8012B00BD000098
:1024300010B5DFF87C430320206103206061DFF8E2
:102440007403A061DFF87013E1614FF480612162D1
:102450000021A162002161620021E1622066DFF8B3
:102460005C0360661020A066002020670020E06604
:10247000002060676BA1E01D00F0BEFFDFF8401395
:10248000200000F0B9FF2020A07110BD2DE9F04719
:1024900005000E0014000027D5F80C80286980453F
:1024A00005D28246BAEB080ABAF1010A07E0D5F86C
:1024B00008A0BAEB080A10EB0A0ABAF1010AA868E8
:1024C000B0EB0800824503D3D5F808A0BAEB080AA0
:1024D000A24500D3A246686800EB080952463100C5
:1024E000484600F095FF1AEB07075644B4EB0A0480
:1024F0001AEB080AD046A868804501D15FF00008B1
:10250000C5F80C80002CC9D13800BDE8F0872DE952
:10251000F04104000E001500D4F80C80A768B7EB5A
:102520000807BD420BD2606800EB08072A003100A3
:10253000380000F06DFF15EB0805E56010E03A008B
:10254000606880443100404600F062FFED1BD4F823
:1025500004802A0006EB0701404600F059FFE560C1
:10256000BDE8F08101000869CA68824204D3896825
:10257000491E8A1A801801E0801A401E70472DE912
:10258000F84F040088461600DFF82452280000782F
:10259000002801D1FFF74CFF1820444305EB04004D
:1025A00010F16007D7F81090FD6800244D451BD24C
:1025B000D7F808A0BAEB090AB24500D3B24678684A
:1025C00000EB09015246C346584600F021FF1AEBC2
:1025D0000404D044B6EB0A061AEB090AD146B868DF
:1025E000814501D15FF00009B5EB0905B54200D383
:1025F0003500002D0ED0786800EB09012A00C24694
:10260000504600F005FF2C1908EB0500761B15EB72
:102610000905A946002C01D0C7F810902000BDE89C
:10262000F28F00005254540010B5EFF311842023B0
:1026300083F31188FFF7A3FF84F3118810BDF8B569
:102640000D001400DFF8682118214843104410F1F0
:1026500018077869002803D002281CD00ED321E087
:102660003800FFF77FFFA04201D2002605E02600D8
:10267000220029003800FFF74AFF14E03800FFF776
:1026800071FF0600A64200D3260032002900380060
:10269000FFF73DFF07E0220029003800FFF7F6FEB4
:1026A000060000E000263000F2BDF8B504000D0081
:1026B0001600DFF8FC000078002801D1FFF7B8FE13
:1026C000EFF31187202080F31188320029002000C9
:1026D000FFF7B5FF87F31188F2BD38B504000D0090
:1026E000280000F0E9FE020029002000FFF7DDFFCE
:1026F00032BD80B5012269460020FFF795FF012811
:1027000002D19DF8000001E05FF0FF3002BD10B57E
:10271000DFF89C4020000078002801D1FFF788FEF8
:1027200014F160000169C068814201D0012000E01D
:10273000002010BD2DE9F0410400884615001F005F
:10274000DFF86C6030000078002801D1FFF770FEE0
:1027500020003169884227D2EFF31182202181F3D2
:102760001188002817D0182101FB00F33344C3F867
:10277000188001FB00F33344DD6101FB00F33344B7
:102780001F62002301FB00F43444A362002301FB19
:1027900000F131444B62069B182148433044C36228
:1027A00082F31188002001E05FF0FF30BDE8F08186
:1027B0002C2F002080570008B42400204432002031
:1027C000A857000862F30F2262F31F42401810F06E
:1027D000030308D0C91A1FD3DB0748BF00F8012D37
:1027E00028BF20F8022D130030B4144615461039C6
:1027F00028BF20E93C00FAD8490728BF20E90C008F
:1028000048BF40F8042D890028BF20F8022D48BF9A
:1028100000F8012D30BC7047C91818BF00F8012D11
:10282000CB0728BF00F8012D7047704770477047ED
:1028300010B5044600F00CF8206000F013F860605A
:1028400000F016F8A060606800F01AF8E06010BDB3
:102850001A48006800F00C00082808BF00F016B8FD
:10286000174870471549174A0968C1F3031104E076
:102870001249154A0968C1F30221515CC8407047EA
:102880000E49114A0968C1F3C221F6E70B490868ED
:1028900000F48030B0F5803F07D10868084AC0F3E3
:1028A0004040401CB2FBF0F000E008480968C1F36A
:1028B0008341891C48437047000000000410024017
:1028C00000127A0050570008A057000800093D0088
:1028D00043F2A021C2F20001086800F10100086083
:1028E00043F2D023C2F200031A6852B1A2F10102EE
:1028F0001A6032B943F2A423C2F200034FF0010080
:10290000186043F2B021C2F20001086802683AB1CF
:1029100043F2B423C2F200034FF001021A600EE04A
:1029200000F1040043F2AC23C2F200031A689042A3
:1029300004D143F2A823C2F200031868086043F2EE
:10294000A423C2F200031A682AB943F2B421C2F2E6
:102950000001086868B301B543F2B421C2F2000176
:10296000086808B100F0C4FD43F2A423C2F20003DA
:102970001A68E2B100F0CEFD43F29420C2F20000EA
:102980000168A1B943F27820C2F20000016843F265
:102990007C22C2F2000213684EF60450CEF2000010
:1029A00040F20002C1F20002994200D00260BDE88C
:1029B0000140BFF34F8F704780B500201449086075
:1029C00000201449086004220021134800F0D6FDBD
:1029D00004220021114800F0D1FD20201049086098
:1029E000802200210F4800F0C9FD00200E49086038
:1029F00000200E49086000200D49086000200D49A4
:102A000008600D48016851F08071016001BD00BF90
:102A1000783200207C320020883200208C32002066
:102A200090320020D42F00208032002084320020F9
:102A300094320020983200209C32002070B586B07D
:102A4000002026490860002025490860002025490B
:102A50000860002024490860002024490860244CB4
:102A600080220021200000F089FD224804602248D5
:102A70000460224D14F17C0028600121286800F0D8
:102A800091FD28601E4C1F4820601F4D4FF4806050
:102A900028601E4E002030601D4800F093FD0100AC
:102AA0000020059000200490306803903068029068
:102AB0002868019020680090164B174A174800F0CC
:102AC00085FD00F079FD0028E6D10020144908605A
:102AD00000201449086006B070BD00BFA03200207D
:102AE000D0320020A4320020B4320020C0320020B6
:102AF00054300020A8320020B0320020AC32002038
:102B0000C4320020B4280020C8320020CC3200207B
:102B1000385700084D495441B5510008782E00201F
:102B2000B8320020BC320020002003490860002099
:102B300002490860704700BFD4320020D83200201C
:102B4000002003490860002002490860704700BF68
:102B5000FC320020003300200020034908600020E0
:102B600002490860704700BFEC320020F0320020BC
:102B7000002003490860002002490860704700BF38
:102B8000E4320020E83200200020034908600020E1
:102B900002490860704700BFDC320020E0320020AC
:102BA000002003490860002002490860704700BF08
:102BB000F4320020F83200202DE9F0470400884666
:102BC000150099460026002C01D1022648E00898FD
:102BD000342801D0022643E000F09CFD264F3968DE
:102BE000491C396000F09AFD2448D0F800A000206C
:102BF00002E0DAF82CA0401C21490968884201D281
:102C00005445F6D100F086FD3968491E396000F060
:102C100085FD00F087FD544501D1022620E0002DFE
:102C200001D103261CE0B9F1640F01D2052617E09B
:102C3000144800681449884200D11326DFF84CA0DC
:102C4000DAF8007000F0BFFC0743002F08D0DAF874
:102C5000007000F0B8FC0743B7F1F03F00D2132634
:102C6000002E06D14B462A004146200000F06EFDA2
:102C700006003000BDE8F08794320020DC320020EE
:102C8000E032002078320020782E0020280000203A
:102C90002DE9F04705000E00170098460024002D8E
:102CA00001D1022420E028682549884201D002246D
:102CB0001AE0002E01D1032416E0002F01D10524D3
:102CC00012E0E869B84201D205240DE0B8F1000F26
:102CD0000AD01C48D0F8009000F075FC50EA0909B1
:102CE000B9F1000F00D00424002C05D1164800686B
:102CF0001649884200D11324002C14D1DFF844A0D7
:102D0000DAF8009000F05FFC50EA0909B9F1000F11
:102D100009D0DAF8009000F056FC50EA0909B9F140
:102D2000F03F00D21324002C06D143463A00310074
:102D3000280000F07FFD04002000BDE8F08700BF00
:102D4000455459422800002078320020782E002077
:102D50002DE9F44F86B0040088469946109D002660
:102D6000002C01D10E2683E01698B42801D00E263F
:102D70007EE000F0CFFC4A4F3968491C396000F012
:102D8000CDFC5FF0000A4748D0F800B0280000F002
:102D90000FFC1199491E00F0FAFB00F010FC002115
:102DA00018E0DBF80C20954206D3DBF810209542A2
:102DB00002D200255FF0010ADBF80C20904206D316
:102DC000DBF81020904202D200255FF0010ADBF808
:102DD00088B0491C344A1268914206D25C4501D140
:102DE0005FF0010ABAF1010FDBD100F093FC396802
:102DF000491E396000F092FC00F094FC5C4501D162
:102E00000E2635E0002D01D1032631E0069800287A
:102E100001D103262CE01198C82801D2052627E00D
:102E20001298202801D30F2622E012981399884285
:102E300001D218261CE01598022801D3102617E0AD
:102E40001A4800681A49884200D11326DFF864A0A6
:102E5000DAF8007000F0B7FB0743002F08D0DAF86B
:102E6000007000F0B0FB0743B7F1F03F00D213262B
:102E7000002E11D14B4641461598059014980490A8
:102E80001398039012980290119801900095069A59
:102E9000200000F09BFB0600300007B0BDE8F08F7B
:102EA00094320020803200208432002078320020CA
:102EB000782E00202800002070B5854D0020286065
:102EC000686005F108060324304600F0F4F800209D
:102ED000B0606968F160686800B186606E60143641
:102EE000641EF1D1012070BD2DE9F04387B0884602
:102EF000914610B90120188056E0002601250022D5
:102F00001C4606E002A9B3B241F82300761C002556
:102F1000401C0178B9B1202902D0222906D00BE04B
:102F200052EA0501F4D101700125F1E712B1002246
:102F30000270F9E70122EBE72900E9D0B1B20529D7
:102F4000E0D30B2003E02180B1B211B90220208030
:102F50002AE0029F06216846FEF7E4F8234606228F
:102F60006946384600F086F8208860B1002548B3ED
:102F7000032818BF042815D0082818BF0A2811D024
:102F80000C20208010E052490D6800E0ED683DB152
:102F90002946684600F012FD0028F7D12D6906E0A9
:102FA000082020800A212180002016E0083568686A
:102FB000B0B12968384600F001FD0028F6D17DB196
:102FC00020806D684B46424602A9B0B2A8474FF038
:102FD000FF32904204BF0921218007B0BDE8F08391
:102FE0000A20DEE72DE9FC410D008046174608BFA8
:102FF00001213DD0686808B9022139E0B8F1000F1D
:1030000007D0404600F090FC062828BF03202BD2B2
:1030100040B928683B460622694600F02BF83888FC
:1030200018BBE8462A4E346800E0E46854B14146D3
:10303000204600F0C3FC2169A94218BF0028F4D142
:10304000072011E0746894B1E06870604146204642
:1030500000F077FC00202561A0603168E1603068F5
:1030600000B18460346000203880BDE8F38106211F
:103070003980FAE770B50D46044611461E462246D1
:1030800000E0521C52B110785F2818BF0028F8D118
:10309000121B92B28A4203DB032007E0042108E0FE
:1030A0002146284600F04FFC10B90520308070BD45
:1030B0000021318070BD10B5044604A100F041FC30
:1030C0000022A260E260226110BD0000000000004A
:1030D0006C31002080B56A4640493CA0FFF782FF72
:1030E000BDF80000401E8041C00F02BD2DE9F8432D
:1030F000022884B00D4690461F4635A6384C19D19B
:103100000FF2D0096868494600F058FC002835D114
:10311000204600F009FC7A6881B22046C04700F0E2
:1031200063F804F13C0000F0FFFB7A6881B204F11F
:103130003C0044E001280BD0204600F0F5FB7A6803
:1031400081B22046C04700F04FF84FF0FF303AE020
:10315000244805680DE0206800F0E6FB81B27A683B
:1031600054F8080BC04700F03FF860680028F2D11F
:10317000ED683DB32C69002CFAD0F6E7696801A828
:1031800000F0DFFB14A101A800F0F4FB494601A800
:1031900000F0F0FB6B463A46414601A8FFF7A4FE5B
:1031A000BDF800000A3802280CD87A6810A019214E
:1031B000C047686800F0B8FB81B27A686868C047A9
:1031C00000F012F8002005B0BDE8F083736800003D
:1031D0000D0A00002D680000200000000000002003
:1031E000205400086C3100207A68022130464047A4
:1031F000436F6D6D616E64206E6F74207265636FD6
:10320000676E697A65643A200000000010B500F02E
:1032100007FC0128044607D1002000F097FC044673
:10322000012818BF00F01FFC204610BD2DE9F04F0B
:10323000B7B08022002116A800F0BCFC38A116A867
:1032400000F07FFB4022002105A800F0B3FC002025
:1032500016A9019002910390834600F005FE31A665
:103260000FF2D908324F0FF2C0090FF2C00A06E080
:10327000019900F0D4FD514605A800F062FB5FFA09
:103280008BF301AA402105A800F0B6FC044605A86E
:1032900000F04AFB641E012CEAD9A41E08BF8BF083
:1032A000010BECD0514605A800F088FB78B300F084
:1032B000CDFD494605A800F081FBC0B93C6811E08E
:1032C000286800F031FB81B2039A55F8080B00F032
:1032D00035F8039A0221304600F030F8686800287B
:1032E000EED1E4689CB12569002DFAD0F6E76B4673
:1032F00002AA414605A8FFF7F7FDBDF800000A380D
:10330000022804D85FF013010FA000F0BBFB00F00F
:10331000ABFD514605A800F014FB00200190AEE77C
:103320005C0000000D0A00003F00000000000000EB
:103330006C31002000F0A6BB00F0CEBB10B50C46EF
:1033400000F0A0FB20B210BD436F6D6D616E642074
:103350006E6F7420666F756E640D0A00F8B5040018
:1033600000F0D8F9070020480568002D04D1380086
:1033700000F0D4F9132036E01C48066800F023F969
:103380000643002E04D0380000F0C8F913202AE0CC
:103390001748854204D1380000F0C0F9132022E01C
:1033A000002C04D1380000F0B9F900201BE01149CD
:1033B0000868002804D0380000F0B0F9132012E0AB
:1033C000042028630120A8630020C5F88400EC6471
:1033D0000868401C0860380000F0A0F9280000F0E0
:1033E0004DFDD5F88400F2BD783200202800002081
:1033F000782E0020943200205FEA000C11F8012B97
:1034000000F8012B12B111F8012BF9E76046704763
:1034100062B38B0708D0521E11F8013B00F8013B44
:1034200000F024808B07F6D1830740F0208000BF96
:10343000103A07D330B4B1E83810103AA0E8381089
:10344000F9D230BC530724BFB1E80810A0E8081037
:1034500044BF51F8043B40F8043BD20724BF31F885
:10346000022B20F8022B44BF0B7803707047121F09
:1034700017D35B0009D151F8043B20F8023B1B0C29
:10348000121F20F8023BF6D20BE051F8043B00F883
:10349000013B1B0A20F8023B1B0C121F00F8013BEA
:1034A000F3D238BF121D521E24BF11F8013B00F8A1
:1034B000013BF8D87047000000F10103810704D0F8
:1034C00010F8011B820781B1FAD10268A2F1013123
:1034D000914311F0803104BF50F8042FF6E709BA88
:1034E000B1FA81F100EBD100401CC01A7047000016
:1034F00080B500F00FF905490A68521C0A6000F017
:103500000DF9034800F0E6FD01BD00BF9432002034
:10351000782E002010B51348046800F0FBF8002155
:10352000114A1160002C19D0216B002916D1E169D4
:10353000A161A1690D4A1160216AA1420ED0E16A20
:10354000E26B91420AD10A49226AE36A41F82320D8
:10355000084A126851F82210074A116000F0DEF89C
:1035600010BD00BF78320020A4320020D0320020ED
:10357000D42F0020903200207C32002010B50400AF
:1035800010000A0001002000FFF71CF910BD0844DC
:103590007047494208447047401A70477047401AC4
:1035A0008010704700EB8100704701207047704722
:1035B00070477047704770470020704770477047EA
:1035C000704770477047EFF3058070472DE9F24F61
:1035D0000500904699460B9FDDF830A00D9CDDF864
:1035E00038B000263A00EF210A98FFF7C7FFB4224F
:1035F00000212800FFF7C2FF0098A862C5F84480A8
:10360000C5F848900A98E8606F61C5F82CA0C5F825
:1036100094A0C5F818B0C5F81CB02020C5F89C00CF
:103620000A98FFF7C5FF7F1E3900FFF7B0FFFFF7CD
:10363000C6FF2861EC63C5F89840032028632D4835
:1036400068652800FFF7AAFFA8652B49280000F04D
:10365000C5FD00F05FF8070028482860284A106878
:10366000002806D127480560C5F88850C5F88C5059
:103670000BE024480068D0F88C10C0F88C50C1F8DA
:103680008850C5F88C10C5F888000F981168491C3F
:1036900011601D4C2168491C216001281AD11B486A
:1036A0000468FFF790FF0443B4F1F03F07D31848D4
:1036B0000468002C04D0E66BE06AE06300E00024BC
:1036C000380000F02BF8280000F004FD002C0DD08D
:1036D000E6630BE0380000F021F800F01BF82168E9
:1036E000491E216000F01AF800F01CF80020BDE827
:1036F000F28F00BFA5550008A55400084452485455
:1037000084320020803200209432002028000020E3
:103710007C320020EFF3108072B6704780F310887F
:103720007047000080B506480068002807D10548AA
:10373000006805490968884201D000F071FD01BDAB
:1037400094320020783200207C320020F8B504004A
:103750000E0015001F00342200212000FFF70EFF8D
:10376000BF08BF0066602800FFF722FFA061E76185
:103770002800FFF71DFF20612800FFF719FF606197
:10378000B7F10800A0600220E0602800FFF710FFFA
:103790003900FFF7FCFE0421FFF7FBFE06002000C6
:1037A000FFF708FF07003000FFF701FF0760042163
:1037B0003000FFF7EEFE06003000FFF7F8FE0700CE
:1037C0002800FFF7F5FE38602800FFF7F1FEFFF74D
:1037D000EEFE06602800FFF7EBFE0421FFF7D7FEA0
:1037E000FFF7E9FE0F49016000202062FFF792FF1A
:1037F0000D4921600D4B1968002904D10C490C605A
:10380000E462246306E00A4909680A6B0C63D46227
:103810002263E1621968491C1960FFF77FFF0020ED
:10382000F2BD00BFEEEEFFFF45545942E0320020EA
:10383000DC3200202DE9F04706008A469946D21C6A
:1038400092089700FFF766FF3449D1F80080002501
:10385000C6F82080FFF762FF3900300000F0F0FC6E
:103860000400FFF757FF002C01D0012503E0316A67
:10387000414500D10125002DEAD0CAF80040002CB6
:1038800003D0FFF74BFF002445E0494600293FD015
:10389000234B1A68002A03D01024FFF73FFF3AE0B9
:1038A000204AC8F86820C8F86C60C8F87CA0C8F83E
:1038B0007870D8F8B020521CC8F8B020B26AB46A48
:1038C000641CB462002A06D1C6F82480C8F870804F
:1038D000C8F8748009E0726AC8F87020546FC8F89C
:1038E0007440C4F87080C2F874800922C8F830208F
:1038F0000122C8F83820C8F84C101968491C196012
:10390000FFF70CFF404600F0B9FAD8F8844002E017
:10391000FFF704FF10242000BDE8F0877832002074
:1039200094320020F95200084FF0FF310246002087
:1039300000E0401C22B112F8013B0BB18842F8D3E1
:1039400070474FF0FF3270B5002818BF00290AD029
:10395000044600250B7843B1954206D200F027F8C3
:1039600018BF0029F6D1002070BD95423CBF002150
:10397000217070BD4FF0FF3270B5002818BF0029CC
:1039800005D09AB1044623781BB1641CFBD10020FA
:1039900070BD00250B783BB1954205D200F007F8C9
:1039A000F5D00029F6D1F2E70021217070BD11F8A1
:1039B000016B04F8016B6D1C002C70474FF0FF3257
:1039C000F0B50546D2B115B949B3087823E009B975
:1039D0002878F0BD6C1C4B1C002604E06D1C491CB3
:1039E000641C5B1C761C28780F78B84204D118B18F
:1039F00014B10BB19642F1D3964201D10020F0BD33
:103A00002978B94218BFC81B08D109B12CB90BB924
:103A1000002003E01878404200E0207800B2F0BDBA
:103A20001FB53A4C3DA120230022204600F0CEFCD9
:103A300008B1FDF71DF82C2001214FF496723223B6
:103A4000039002910192009304F1200004F14C03D1
:103A50000FF2950238A100F01BFD08B1FDF708F840
:103A6000012004B010BD10B5284C204600F086FDA2
:103A700008B1FCF7FDFF04F1200000F0ABFD00B140
:103A800048E010BD80B50A4601460020FEF70DFE55
:103A90004FF0FF3002BD10B5FEF72BFE10F1010F05
:103AA00018D11A4C04F1200000F0C0FD020018BF2C
:103AB000172A05D016490020FDF70EFEFCF7D8FFA7
:103AC0004FF0FF31204600F0C1FD08B1FCF7D0FFF8
:103AD000002010BDC0B210BD01B501226946002012
:103AE000FEF7E3FD01BD000010B5FEF710FE60B16A
:103AF000064C204600F0DAFD08B1FCF7B9FF04F1EE
:103B0000200000F0E3FD00B104E010BDD43000203F
:103B10005C560008BDE81040FCF7AABF5365726907
:103B2000616C5F627974655F696E7075745F7365EF
:103B30006D6170686F7265007265616420646174A4
:103B4000612074696D657200FFF770BB80B588B045
:103B50000020079000234FF4806207A90F48FFF769
:103B600097F808B1FCF784FF042201210492059123
:103B7000B420079A08234FF48061069003930293C0
:103B8000019100920123064A07A10648FFF7E0F8D9
:103B9000401E8041C00F09B000BD0000E0000020C1
:103BA000493B0008C42D00205465726D696E616C3C
:103BB0000000000010B5134600240422521E41EA02
:103BC0000424FBD110F003020BD003E000F8011B2A
:103BD0005B1E521C2BB1042AF8D302E040F8044BC0
:103BE0001B1F042BFAD22BB1BDE810400A46194620
:103BF000FEF7E8BD10BD00002DE9FB4F904684B0F4
:103C0000D8F80040DFF85CA2054608E00820FFF77E
:103C100093FB295D3155641CA742F7D2039CFFF743
:103C20003AFF07466E1E601E082F05EB040903903D
:103C300026D00A2F18BF0D2F18D01B2F41D0384681
:103C400000F059FD0128EAD105998C42E7D29DF890
:103C50001800002840F0BB803846FFF76DFB285D58
:103C60002F55002801D189F80100D3E000F0D4F8E5
:103C700000212954C8F80000002007B0BDE8F08FEB
:103C8000002CCCD09DF8180058B9032171A0FFF783
:103C900051FB285D002819BF2020305500213155E7
:103CA000BCE700F0B9F807460820FFF745FBBC4227
:103CB00003D2391B4846FFF73DFB2020FFF73CFBB2
:103CC000AAE7FFF7E8FE5B28A9D1002702E00DF87C
:103CD00007007F1CFFF7DFFEA0F13001102938BF7D
:103CE0000A2FF4D3A0F12002102A38BF0A2F05D2E0
:103CF0000DF807007F1CFFF7CEFEF3E7412804F123
:103D0000010B08D042280AD043280CD0442815D0F3
:103D10007E2819D083E7C8F800400120ADE7C8F835
:103D200000400220A9E700F077F8844205D25C4603
:103D300003210AF10400FFF7FDFA70E7002CFCD024
:103D4000039C03215046F6E7012FF6D19DF80000B1
:103D5000312806D004D333280FD00AD334282AD0F0
:103D60005DE7002CFCD003215046FFF7E3FA641E08
:103D7000F7E7C8F8004003207FE700F04DF807465A
:103D8000BC42EDD2391B09F10100FFF7D3FA022141
:103D900031A0FFF7CFFA09E015F80B0006F80B0089
:103DA00003215046FFF7C6FA0BF1010BBB45F3D3D5
:103DB0000020F05533E700F02FF80646B442F9D260
:103DC00003210AF10400FFF7B5FA641CF6E700F0DE
:103DD00023F883460598834508BFA0F1010B584698
:103DE00002E0315C2954401E8442FAD32F55691CED
:103DF000002001F80B005C4504D2ABEB04014846FF
:103E0000FFF798FA264603E00820FFF795FA761C9C
:103E10005E45F9D3641C02E72846FFF785BD70B5FF
:103E200004460D460DA604E001213046FFF782FA54
:103E30006D1CA542F8D3002506A604E003213046F8
:103E4000FFF778FA6D1CA542F8D370BD022104A0DB
:103E5000FFF770BA082008002008000020000000CA
:103E60000D0A0000100000205FF0040101A0FFF720
:103E700061BA00000D0A3E20000000002DE9F04765
:103E800006008C480468FFF745FC0500A6420CD1EB
:103E9000F06C002806D010F1010F03D016F14C0091
:103EA00000F02CFCF06984490860844F3868401E9B
:103EB0003860B06B012840F0EF800020B063F16AF9
:103EC000306AB04215D0726A426210627C4A52F87F
:103ED0002130B3426FD142F821007A4A106800289D
:103EE00069D0012010FA01F1106830EA0101116077
:103EF00061E00020724A42F82100012313FA01F028
:103F0000DFF8C4C1DCF8002032EA0000CCF8000081
:103F10006C4A1068002805D013FA01F1106830EAE5
:103F2000010111600021DCF80000002806D12020EA
:103F3000664908600020664908603CE00022C343EF
:103F40005B1C1840102806D2042801D38008921C5C
:103F500012EB50022CE0B0F5807F08D20009121D50
:103F6000042801D38008921C12EB500220E0B0F527
:103F7000803F0CD2000A0832102801D30009121D1C
:103F8000042801D38008921C12EB500210E0000CB0
:103F90001032B0F5807F01D3000A0832102801D317
:103FA0000009121D042801D38008921C12EB500254
:103FB000511846480160DFF81881D8F800008642A1
:103FC0006AD1424EDFF8F890306859F82000C8F8FE
:103FD0000000DFF8F0A0DAF8000000285CD03868B4
:103FE000401C38602800FFF799FBFFF793FB0500A2
:103FF0003868401E38600020DAF800100022CB43F9
:104000005B1C1940102906D2042901D38908921C8F
:1040100012EB51022CE0B1F5807F08D20909121D84
:10402000042901D38908921C12EB510220E0B1F55A
:10403000803F0CD2090A0832102901D30909121D48
:10404000042901D38908921C12EB510210E0090CDB
:104050001032B1F5807F01D3090A0832102901D34B
:104060000909121D042901D38908921C12EB51027F
:104070001018316859F82020D26B91420CD359F8AE
:104080002010C8F80010012111FA00F0DAF8001031
:1040900031EA0000CAF800002800FFF73FFB0C4897
:1040A0000068844204D03868002801D100F0B8F8D4
:1040B000BDE8F08778320020D03200209432002012
:1040C000D42F00208C320020883200209032002033
:1040D0007C320020F8B50400FFF71CFB0500606E81
:1040E000002804D014F14C0000F046FB01E0002051
:1040F000E064334E3068401E3060A06B00283ED133
:10410000206B00284DD0606B002833D10020206345
:10411000E16A2C4A52F82100002825D142F82140BA
:1041200024626462012212FA01F0274B1F683843AF
:10413000186026480368994233D20160244B1868FE
:10414000002801D11C602CE0C76BB94229D2C16B99
:10415000C76AB94206D0C06A12FA00F01D490A685F
:10416000104308601C601CE0416A0C62446261629A
:10417000206216E0002060630320206311E0206BC2
:1041800001280ED0206B02280BD0606B002804D1D0
:104190000020A0630020206303E000206063032070
:1041A00020630D4804682800FFF7B8FA0848006843
:1041B000844204D03068002801D100F031F8F1BD0C
:1041C00094320020D42F002088320020903200202A
:1041D0007C3200208C32002078320020026922F0EC
:1041E0000702A2F144020D4B13604FF0000353602D
:1041F0009360D360136153619361D361136253621F
:104200009362D362136353634FF0FF339363D163BD
:104210004FF080731364826070470000FDFFFFFF62
:104220004FF080504FF0E021C1F8040DEFF305800E
:10423000002804D1EFF3108162B681F31088704733
:104240002DE9F24F82B007000025FFF763FA8046A0
:104250000298B968884204D34046FFF75FFA00200D
:10426000ADE058480068009000983862D7F8149084
:10427000FC68641C002604214846FFF788F9FFF714
:104280009AF9DFF844A10068504540F08E80002D77
:1042900002D1C7F8149001254846FFF788F901902C
:1042A0000198D0F800B049465846FFF775F9060066
:1042B000083E029886422DD2002604215846FFF778
:1042C00066F9FFF778F90068504565D15846FFF761
:1042D0006EF9006801990860F868401EF860786916
:1042E000584501D1C7F81490002C00D0641E4046F8
:1042F000FFF714FAFFF70EFA8046386A00998842F1
:1043000005D0D7F81490FC68641C00983862002C23
:10431000B1D1FFE7002E4ED00298301A14281CD3DA
:10432000029908314846FFF732F904002000FFF7F0
:104330003EF906004846FFF73AF905002868306064
:1043400004212000FFF723F9FFF735F9C0F800A09A
:10435000F868401CF8602C60029E04214846FFF774
:1043600016F9FFF724F904003800FFF723F920605D
:10437000B868861B083EBE607869814504D148460E
:10438000FFF715F9006878614046FFF7C7F9082183
:104390004846FFF7FCF812E05846FFF708F9D0F856
:1043A0000090002CA0D0641E9EE74846FFF7FFF85F
:1043B000D0F8009098E74046FFF7B0F90020BDE83C
:1043C000FE8F00BF78320020EEEEFFFF2DE9F843AC
:1043D00005000F0090460024002D01D10C242CE094
:1043E000202B01D00C2428E0FFF794F9224E3168ED
:1043F000491C3160FFF792F92048D0F80090002066
:1044000002E0D9F81490401C1D490968884201D285
:104410004D45F6D1FFF77EF93168491E3160FFF74F
:104420007DF9FFF77FF94D4501D10C2405E01548D2
:1044300000681549884200D11324002C11D1DFF8FF
:104440004C90D9F80060FFF7BEF80643002E08D064
:10445000D9F80060FFF7B7F80643B6F1F03F00D295
:104460001324002C05D142463900280000F09CF9A5
:1044700004002000BDE8F28394320020D4320020F2
:10448000D832002078320020782E0020280000202A
:104490002DE9FE4F0500884691469A460E9E00245F
:1044A000002D01D1152431E00F982C2801D01524BE
:1044B0002CE0FFF72FF92B4F3968491C3960FFF7C3
:1044C0002DF92948D0F800B0002002E0DBF824B034
:1044D000401C26490968884201D25D45F6D1FFF7A4
:1044E00019F93968491E3960FFF718F9FFF71AF909
:1044F0005D4501D1152409E00C98002801D116244E
:1045000004E0012E02D0002E00D01724002C17D179
:10451000174800681749884200D11324DFF858B0C3
:10452000DBF80070FFF74FF80743002F08D0DBF8E7
:104530000070FFF748F80743B7F1F03F00D21324AB
:10454000002C0BD153464A46414602960D980190E5
:104550000C980090280000F053F904002000BDE8FA
:10456000FE8F00BF94320020B8320020BC32002001
:1045700078320020782E00202800002070B504003A
:104580000025002C01D10C2514E020680D4988423B
:1045900001D00C250EE00C480668FFF714F806431E
:1045A000002E01D0132505E008480068084988421C
:1045B00000D11325002D03D1200000F063F9050080
:1045C000280070BD414D455328000020783200205E
:1045D000782E002070B505000024002D01D115248F
:1045E0001AE028680D49884201D0152414E00C48CF
:1045F0000668FEF7E8FF0643002E01D013240BE007
:10460000084800680849884200D11324002C03D1CF
:10461000280000F083F90400200070BD4D4954418A
:104620002800002078320020782E002080B5002855
:1046300001D1152007E00168034A914201D01520FD
:1046400001E000F097F902BD4D495441F8B504006E
:104650000D000026002C01D10C2616E020680F4921
:10466000884201D00C2610E0002D0ED00C480768BF
:10467000FEF7A9FF0743002F01D0042605E00948F3
:1046800000680949884200D10426002E04D129007F
:10469000200000F089F906003000F2BD414D45537D
:1046A0002800002078320020782E002080B50028D5
:1046B00001D10C2007E00168034A914201D00C208F
:1046C00001E000F0BFF902BD414D455380B500281F
:1046D00001D1152007E00168034A914201D015205D
:1046E00001E000F0EBF902BD4D49544161381A2850
:1046F0008041C00F704720385F28F9E7F8B5040003
:104700002168002931D011F1010F2ED0A0690028B5
:104710002BD1212901D31F2100E0491E1348006835
:10472000FEF740FF05002800FEF74BFF0700104E84
:104730003068FEF746FF874209D331682800FEF74C
:104740002EFF01000B480068FEF72CFF05002868CB
:10475000002803D1246164612C6005E02868416968
:104760000C61446120616161A561F1BDB03200203E
:10477000AC320020A83200208169002912D00269E1
:10478000904205D10A6882420AD100220A6007E0FD
:10479000436953611A610B68834201D191610A60D8
:1047A000002181617047000070B504000D00160003
:1047B000202200212000FEF7E1FE6560A660FEF7E2
:1047C000A9FF0C4921600C4B1968002904D10B4941
:1047D0000C606461A46106E0084909688A698C611B
:1047E0005461A26161611968491C1960FEF796FF66
:1047F000002070BD414D4553D8320020D4320020F6
:104800002DE9F84304000D0016001F00DDF820809C
:10481000DDF824902C2200212000FEF7AFFE656019
:10482000C4F80880C4F80C9026616761FEF772FF37
:10483000050011482060114A1068002804D1104872
:1048400004606462A46206E00D480068816A8462C4
:104850004C62A16260620A981168491C11600128CB
:1048600003D114F10800FFF749FF2800FEF756FFB7
:104870000020BDE8F28300BF4D495441BC32002006
:10488000B8320020F8B50500FEF744FF002129608A
:104890001F490A68521E0A600968002903D10021D5
:1048A0001C4A116008E06969AA698A615161194A64
:1048B0001368AB4200D11160174E3168491C31605A
:1048C000EF680021E9602C6900212961FEF726FFCD
:1048D00011E0641EFEF71EFF0021B9660121C7F832
:1048E00084103D6F3168491C3160FEF717FF3800B6
:1048F000FFF7F0FB2F00002CEBD1FEF70BFF316828
:10490000491E3160FEF70AFFFEF70CFF0020F2BDE2
:10491000D8320020D43200209432002038B5040070
:10492000FEF7F8FE0500206A002803D014F1080005
:10493000FFF722FF002020600C480168491E01603B
:104940000068002803D100200949086008E0606A77
:10495000A16A8162486206490A68A24200D10860E1
:104960002800FEF7DBFE002032BD00BFBC32002075
:10497000B832002038B50400FEF7CCFE0500206AEE
:10498000002801D0172409E0A068002801D11724CD
:1049900004E014F10800FFF7B1FE00242800FEF740
:1049A000BDFE200032BD000070B505000C000026E1
:1049B000FEF7B0FEA968002905D0A968491EA960C4
:1049C000FEF7ACFE36E0002C31D01B4A11680029FE
:1049D00003D0FEF7A3FE0D262CE018490E681849F7
:1049E000B166F566D6F8B010491CC6F8B010296952
:1049F000002903D1EE603667766705E0E968316724
:104A00004B6F73671E674E672969491C2961062130
:104A100031630121B163F4641168491C1160FEF730
:104A20007DFE3000FFF72AFAD6F8846002E0FEF738
:104A300075FE0D26300070BD9432002078320020C3
:104A40008D53000870B50400FEF764FE0100206974
:104A500000280CD1A068401CA060E5690800FEF7A2
:104A60005DFE2800002824D02000A84721E0E5684A
:104A7000401E002802D10022E26004E02A6FE260BA
:104A80006B6F53671A6720610020A866E6690020F3
:104A9000C5F8840008480268521C02600800FEF74E
:104AA0003DFE2800FFF716FB3000002801D0200053
:104AB000B047002070BD00BF943200202DE9F843BC
:104AC00010F10805FEF726FE0600AC69002C68D040
:104AD0005FF000082000FEF774FD8146344F38680F
:104AE000FEF76FFD81450BD32000FEF76AFD81467E
:104AF00030480068FEF765FD814501D25FF001088E
:104B0000B8F1010F2AD12000FEF75BFD8146DFF8E6
:104B1000A880D8F80000FEF754FD814507D3D8F8E7
:104B200000102000FEF73BFD07007F1C0CE03968F9
:104B30002000FEF734FD0700D8F800101D4800687B
:104B4000FEF72DFD401CC7192868212804D32868CA
:104B5000203F3F182F6011E02F600FE017480068DA
:104B6000A84209D02868212803D328682038286063
:104B700004E06868286001E0686828602869854268
:104B800005D12068A8420AD10020206007E06969A9
:104B9000416108612168A94201D18461206000203F
:104BA000A8613000FEF7BAFD0020BDE8F28300BF27
:104BB000A8320020AC320020B0320020C0320020E9
:104BC0002DE9F84F00F1380204275168DFF830B2C0
:104BD0000B6804688B4925689668DFF82CC2DFF8FB
:104BE0002CE2DFF82C82DFF82C92DFF82CA2B74001
:104BF0003B421FD06F071DD5544508BF04223CD04F
:104C00004C4508BF402238D0444508BF4FF480626D
:104C100033D0744508BF4FF480422ED0644508BF9E
:104C20004FF4802229D05C4514BF4FF080624FF4CE
:104C3000800222E00227B7403B4223D0AF0721D5B4
:104C4000544508BF022218D04C4508BF202214D07A
:104C5000444508BF4FF400720FD0744508BF4FF4AD
:104C600000520AD0644508BF4FF4003205D05C45BD
:104C70000CBF4FF400124FF000720A60BDE8F24F13
:104C800000F06BB9082101FA06F6334215D0290766
:104C900013D5236823F00E03236001249168536821
:104CA0008C405C600121116080F82110002380F8A5
:104CB0002030BDE8F24F00F01EB9BDE8F18F70B5AD
:104CC00000F1380202265168096803681C6895687B
:104CD000AE40314235D0A60733D5196821F00A011C
:104CE0001960012280F8212001684B4B994208BFCE
:104CF00002211DD0474A914208BF202118D0444AC2
:104D0000914208BF4FF4007112D0404A914208BF4F
:104D10004FF400510CD03C4A914208BF4FF400318F
:104D200006D0374A91420CBF4FF400114FF000718A
:104D3000344A1160002180F82010BDE8704000F076
:104D4000D1B8082606FA05F5294215D0210713D552
:104D50001C6824F00E041C600123916854688B4089
:104D6000636001211160002380F8211080F8203059
:104D7000BDE8704000F0BFB870BD10B590F82120BC
:104D80000021022A03D004218163012134E002685A
:104D9000136823F00E03136002681F4B1468640845
:104DA0006400146002689A4208BF01221DD0194BAA
:104DB0009A4208BF102218D0154B9A4208BF4FF4F0
:104DC000807212D0114B9A4208BF4FF480520CD01F
:104DD0000D4B9A4208BF4FF4803206D0084B9A42DE
:104DE0000CBF4FF480124FF08072064B1A60012204
:104DF00080F8212080F82010084610BD0000000037
:104E00006C0002400400024058000240440002408E
:104E1000300002401C000240080002407CB50446FD
:104E200021680B68CA684D6913F00F0009D1D806D4
:104E30004FD5D2064DD500F04DF8BDE8764000F0D4
:104E40008CB8E80702D412F4907F42D0D80705D579
:104E5000D60503D5E06B40F00100E063580705D5A7
:104E6000EE0703D5E06B40F00200E063980705D53C
:104E7000EE0703D5E06B40F00400E063180707D5A8
:104E8000960601D4E80703D5E56B45F00805E56310
:104E9000E06BF0B1980609D5950607D5D80605D57B
:104EA000D20603D500F016F800F057F8E06B0107C2
:104EB0000FD5204600F043F82068416921F04001F9
:104EC0004161606BFFF759FF18B1BDE87340FBF714
:104ED000CFBD73BD08680090009A486800900099A3
:104EE000606B7047406A0021C1840068416921F00D
:104EF00080014161704710B5446A2068416904F13E
:104F000039021378212B09D1090607D50023E38440
:104F1000C16821F0C001C16020201070216848697B
:104F20005178222906D1410604D50022E285204687
:104F300000F005F8E06B40F01000E06310BD016880
:104F4000CA6822F49872CA6001684A69520852001D
:104F50004A61202180F83A1070477047534547470F
:104F60004552205265616C2D54696D652D546572F2
:104F70006D696E616C2053616D706C650D0A000087
:104F80005072657373203C313E20746F20636F6EE6
:104F900074696E756520696E20626C6F636B696EF3
:104FA00067206D6F646520284170706C696361745F
:104FB000696F6E207761697473206966206E65631E
:104FC0006573736172792C206E6F20646174612047
:104FD0006C6F7374290D0A005072657373203C3234
:104FE0003E20746F20636F6E74696E756520696E04
:104FF000206E6F6E2D626C6F636B696E67206D6FD4
:10500000646520284170706C69636174696F6E20FB
:10501000646F6573206E6F7420776169742C2064EF
:10502000617461206C6F7374206966206669666FB5
:105030002066756C6C290D0A000000007072696EA4
:10504000746620546573743A202525632C20202033
:10505000202020202020275327203A2025632E0DB2
:105060000A0000007072696E746620546573743AA9
:1050700020252535632C2020202020202020274596
:1050800027203A202535632E0D0A00007072696EC4
:10509000746620546573743A2025252D35632C20C1
:1050A000202020202020274727203A20252D356347
:1050B0002E0D0A007072696E746620546573743A1E
:1050C000202525352E33632C202020202020274723
:1050D00027203A20252D35632E0D0A007072696E47
:1050E000746620546573743A2025252E33632C2072
:1050F000202020202020274527203A20252D3563F9
:105100002E0D0A007072696E746620546573743ACD
:10511000202525632C2020202020202020202752FD
:1051200027203A2025632E0D0A0000007072696E58
:10513000746620546573743A202525732C20202032
:105140002020202252545422203A2025732E0D0A6A
:10515000000000007072696E746620546573743AC2
:10516000202525732C20225254545C725C6E526FA1
:10517000636B732E22203A2025732E0D0A00000047
:105180007072696E7466207468726561645F305F06
:10519000656E7472793A202C207468726561645F60
:1051A000305F636F756E746572203A2025752E0D21
:1051B0000A0000002DE9FC410024474988420FD035
:1051C000BDE8F381454D032129630121A9634449C9
:1051D0000A68521C0A60FEF7A1FA2800FEF74EFE8C
:1051E000FEF7E3F90128EBD1FEF794FA06003D4DF6
:1051F0002868006800900098002802D0684600994E
:10520000886100202968086001212868FEF7CAF932
:105210002860286834490968884202D13348006808
:105220002860334D002028603000FEF777FAFEF743
:1052300071FA2BE00021B1610AE0B768F468716887
:10524000316031680029F5D001A9B161366101965C
:10525000DFF8A080C8F80060FEF760FA3800002888
:1052600001D02000B847FEF755FA07000020C8F823
:1052700000000198B04204D10020B0613000FFF777
:105280003DFA3800FEF74AFAFEF744FA0099002981
:105290001BD0009E00990969002201928E4202D122
:1052A0000021009105E072694A6111616A468A61D4
:1052B000009131682129C0D331682039316000273D
:1052C00001A9B16136610196C2E7296800293FF45E
:1052D00079AFFEF723FA83E74D495441782E002039
:1052E00094320020B0320020AC320020A8320020DE
:1052F000B4320020C032002070B504000E00FEF76A
:1053000009FA0500A06E1E49884235D1D4F8B000D4
:10531000864231D1E06EFEF74CF900282CD00168AE
:10532000184A914228D1816A002925D00021A1661E
:10533000816A491E8162816A002902D1002141628D
:1053400007E0216F626F4A671167426AA24200D18B
:105350004162206B09280FD11020C4F884000A484C
:105360000168491C01602800FEF7D8F92000FEF70B
:10537000B1FEFEF7CFF905002800FEF7CFF970BDAA
:10538000F9520008455459429432002070B5040087
:105390000E00FEF7BFF90500A06E1E49884235D108
:1053A000D4F8B000864231D1E06EFEF707F900284C
:1053B0002CD00168184A914228D10169002925D0D2
:1053C0000021A1660169491E01610169002902D11C
:1053D0000021C16007E0216F626F4A671167C268F0
:1053E000A24200D1C160206B06280FD10D20C4F865
:1053F00084000A480168491C01602800FEF78EF904
:105400002000FEF767FEFEF785F905002800FEF78D
:1054100085F970BD8D530008414D455394320020ED
:1054200053685F68656C703A2075736167653A20F0
:1054300053685F68656C700D0A20202020202020B2
:1054400020202020202020202053685F68656C7079
:10545000205B636F6D6D616E645D00002020202015
:10546000202020202020202020202020476574207C
:105470006C697374206F6620636F6D6D616E647309
:105480002C206F7220696E666F726D6174696F6E29
:105490002061626F7574206120636F6D6D616E6451
:1054A0002E00000038B519480468FEF733F9D4F827
:1054B000AC50FEF733F92800002802D0002120006C
:1054C000A847A06C616C884711490868002802D081
:1054D000200009688847FEF71DF9D4F8AC50012177
:1054E00021630121A1630021E1640A490A68521C79
:1054F0000A60FEF713F92800002802D001212000DD
:10550000A8472000FEF7BAFC31BD00BF783200206A
:105510009832002094320020FEE7FEE7FEE7FEE727
:10552000FEE770477047084800F01AB870477047A8
:105530000648FCF750BD0648FCF74DBD0548FBF793
:1055400055B90548FCF7C1BA30320020802D002043
:105550003C2D002024310020F03100207047000055
:1055600010B5044620680168CA0717D54168CA0704
:1055700014D540684107204608D500F010F821688E
:105580006FF0040048600422627403E000F008F841
:10559000012060746FF001012068416010BD704708
:1055A0007047000070B5FEF70BF80400FEF7B2F884
:1055B000216B042909D10B490A68521C0A60FEF7C5
:1055C000ADF82000FEF786FD0AE0A56ED4F8B060C5
:1055D000FEF7A4F82800002802D031002000A847D8
:1055E00070BD00BF94320020546869732066756EE8
:1055F0006374696F6E20697320657865637574657F
:105600006420696E2063617365206F662065727225
:105610006F72206F6363757272656E63652E0D0A1B
:105620000000000030B5016884684218416802EB50
:105630005103C90703D54C4401E0491C05D19A42E6
:105640000AD012F9011B12F8015B002904F8015B72
:10565000F3D4491EF7D5F2E70C3030BD74785F748F
:10566000696D65725F6163746976617465207374D6
:105670006174757320766C6175653A203C3C202519
:1056800075203E3E0D0A000010B5074979441831D7
:10569000064C7C44163404E00A68081D114488470F
:1056A0000146A142F8D110BD08000000240000000E
:1056B0002FAFFFFFD83200002C00002000000000B8
:1056C00065FFFFFF6C0100004200000000000020A9
:1056D0000448FFF7F4BA0448FFF772BA0348FFF72B
:1056E0009DBB0000B42C0020F82C0020B03100201D
:1056F00000F00DF8002801D0FFF7C6FFAFF30080DF
:105700000020AFF30080FBF751F900F002F8012010
:10571000704700F001B800000746384600F002F874
:10572000FBE7000080B5AFF30080024A11001820AB
:10573000ABBEFBE72600020053797374656D2054FD
:10574000696D65722054687265616400704700007D
:105750000000000000000000010203040607080921
:105760003031323334353637383941424344454697
:1057700001488047014800474D5700088D570008F1
:105780005465726D696E616C00000000AFF30080BB
:10579000AFF30080FFF7ACFF73685F68656C700063
:1057A0000000000001020304534547474552000032
:1057B000FFF7FEBFFFF7FEBFFFF7FEBFFFF7FEBF1D
:1057C000FFF7FEBFFFF7FEBFFFF7FEBFFFF7FEBF0D
:1057D000FFF7FEBFFFF7FEBFFFF7FEBFFFF7FEBFFD
:1057E000FFF7FEBFFFF7FEBFFFF7FEBFFFF7FEBFED
:1057F000FFF7FEBFFFF7FEBFFFF7FEBFFFF7FEBFDD
:10580000FFF7FEBFFFF7FEBFFFF7FEBFFFF7FEBFCC
:10581000FFF7FEBFFFF7FEBFFFF7FEBFFFF7FEBFBC
:10582000FFF7FEBFFFF7FEBFFFF7FEBFFFF7FEBFAC
:105830000798570008ED300008F800081B5B44008B
:105840001B5B430001F9000010FC000224F400FC83
:01585000F067
:040000050800578D0B
:00000001FF
